{
  "_format": "hh-sol-artifact-1",
  "contractName": "Domains",
  "sourceName": "contracts/Domains.sol",
  "abi": [
    {
      "inputs": [
        {
          "internalType": "string",
          "name": "_tld",
          "type": "string"
        }
      ],
      "stateMutability": "payable",
      "type": "constructor"
    },
    {
      "anonymous": false,
      "inputs": [
        {
          "indexed": true,
          "internalType": "address",
          "name": "owner",
          "type": "address"
        },
        {
          "indexed": true,
          "internalType": "address",
          "name": "approved",
          "type": "address"
        },
        {
          "indexed": true,
          "internalType": "uint256",
          "name": "tokenId",
          "type": "uint256"
        }
      ],
      "name": "Approval",
      "type": "event"
    },
    {
      "anonymous": false,
      "inputs": [
        {
          "indexed": true,
          "internalType": "address",
          "name": "owner",
          "type": "address"
        },
        {
          "indexed": true,
          "internalType": "address",
          "name": "operator",
          "type": "address"
        },
        {
          "indexed": false,
          "internalType": "bool",
          "name": "approved",
          "type": "bool"
        }
      ],
      "name": "ApprovalForAll",
      "type": "event"
    },
    {
      "anonymous": false,
      "inputs": [
        {
          "indexed": true,
          "internalType": "address",
          "name": "from",
          "type": "address"
        },
        {
          "indexed": true,
          "internalType": "address",
          "name": "to",
          "type": "address"
        },
        {
          "indexed": true,
          "internalType": "uint256",
          "name": "tokenId",
          "type": "uint256"
        }
      ],
      "name": "Transfer",
      "type": "event"
    },
    {
      "inputs": [
        {
          "internalType": "address",
          "name": "to",
          "type": "address"
        },
        {
          "internalType": "uint256",
          "name": "tokenId",
          "type": "uint256"
        }
      ],
      "name": "approve",
      "outputs": [],
      "stateMutability": "nonpayable",
      "type": "function"
    },
    {
      "inputs": [
        {
          "internalType": "address",
          "name": "owner",
          "type": "address"
        }
      ],
      "name": "balanceOf",
      "outputs": [
        {
          "internalType": "uint256",
          "name": "",
          "type": "uint256"
        }
      ],
      "stateMutability": "view",
      "type": "function"
    },
    {
      "inputs": [
        {
          "internalType": "string",
          "name": "_domainName",
          "type": "string"
        }
      ],
      "name": "getAddress",
      "outputs": [
        {
          "internalType": "address",
          "name": "",
          "type": "address"
        }
      ],
      "stateMutability": "view",
      "type": "function"
    },
    {
      "inputs": [
        {
          "internalType": "uint256",
          "name": "tokenId",
          "type": "uint256"
        }
      ],
      "name": "getApproved",
      "outputs": [
        {
          "internalType": "address",
          "name": "",
          "type": "address"
        }
      ],
      "stateMutability": "view",
      "type": "function"
    },
    {
      "inputs": [
        {
          "internalType": "string",
          "name": "_domainName",
          "type": "string"
        }
      ],
      "name": "getRecords",
      "outputs": [
        {
          "internalType": "string",
          "name": "",
          "type": "string"
        }
      ],
      "stateMutability": "view",
      "type": "function"
    },
    {
      "inputs": [
        {
          "internalType": "address",
          "name": "owner",
          "type": "address"
        },
        {
          "internalType": "address",
          "name": "operator",
          "type": "address"
        }
      ],
      "name": "isApprovedForAll",
      "outputs": [
        {
          "internalType": "bool",
          "name": "",
          "type": "bool"
        }
      ],
      "stateMutability": "view",
      "type": "function"
    },
    {
      "inputs": [],
      "name": "name",
      "outputs": [
        {
          "internalType": "string",
          "name": "",
          "type": "string"
        }
      ],
      "stateMutability": "view",
      "type": "function"
    },
    {
      "inputs": [
        {
          "internalType": "uint256",
          "name": "tokenId",
          "type": "uint256"
        }
      ],
      "name": "ownerOf",
      "outputs": [
        {
          "internalType": "address",
          "name": "",
          "type": "address"
        }
      ],
      "stateMutability": "view",
      "type": "function"
    },
    {
      "inputs": [
        {
          "internalType": "string",
          "name": "name",
          "type": "string"
        }
      ],
      "name": "price",
      "outputs": [
        {
          "internalType": "uint256",
          "name": "",
          "type": "uint256"
        }
      ],
      "stateMutability": "pure",
      "type": "function"
    },
    {
      "inputs": [
        {
          "internalType": "string",
          "name": "_domainName",
          "type": "string"
        }
      ],
      "name": "register",
      "outputs": [],
      "stateMutability": "payable",
      "type": "function"
    },
    {
      "inputs": [
        {
          "internalType": "address",
          "name": "from",
          "type": "address"
        },
        {
          "internalType": "address",
          "name": "to",
          "type": "address"
        },
        {
          "internalType": "uint256",
          "name": "tokenId",
          "type": "uint256"
        }
      ],
      "name": "safeTransferFrom",
      "outputs": [],
      "stateMutability": "nonpayable",
      "type": "function"
    },
    {
      "inputs": [
        {
          "internalType": "address",
          "name": "from",
          "type": "address"
        },
        {
          "internalType": "address",
          "name": "to",
          "type": "address"
        },
        {
          "internalType": "uint256",
          "name": "tokenId",
          "type": "uint256"
        },
        {
          "internalType": "bytes",
          "name": "_data",
          "type": "bytes"
        }
      ],
      "name": "safeTransferFrom",
      "outputs": [],
      "stateMutability": "nonpayable",
      "type": "function"
    },
    {
      "inputs": [
        {
          "internalType": "address",
          "name": "operator",
          "type": "address"
        },
        {
          "internalType": "bool",
          "name": "approved",
          "type": "bool"
        }
      ],
      "name": "setApprovalForAll",
      "outputs": [],
      "stateMutability": "nonpayable",
      "type": "function"
    },
    {
      "inputs": [
        {
          "internalType": "string",
          "name": "_domainName",
          "type": "string"
        },
        {
          "internalType": "string",
          "name": "_spotifyLink",
          "type": "string"
        }
      ],
      "name": "storeRecord",
      "outputs": [],
      "stateMutability": "nonpayable",
      "type": "function"
    },
    {
      "inputs": [
        {
          "internalType": "bytes4",
          "name": "interfaceId",
          "type": "bytes4"
        }
      ],
      "name": "supportsInterface",
      "outputs": [
        {
          "internalType": "bool",
          "name": "",
          "type": "bool"
        }
      ],
      "stateMutability": "view",
      "type": "function"
    },
    {
      "inputs": [],
      "name": "symbol",
      "outputs": [
        {
          "internalType": "string",
          "name": "",
          "type": "string"
        }
      ],
      "stateMutability": "view",
      "type": "function"
    },
    {
      "inputs": [],
      "name": "tld",
      "outputs": [
        {
          "internalType": "string",
          "name": "",
          "type": "string"
        }
      ],
      "stateMutability": "view",
      "type": "function"
    },
    {
      "inputs": [
        {
          "internalType": "uint256",
          "name": "tokenId",
          "type": "uint256"
        }
      ],
      "name": "tokenURI",
      "outputs": [
        {
          "internalType": "string",
          "name": "",
          "type": "string"
        }
      ],
      "stateMutability": "view",
      "type": "function"
    },
    {
      "inputs": [
        {
          "internalType": "address",
          "name": "from",
          "type": "address"
        },
        {
          "internalType": "address",
          "name": "to",
          "type": "address"
        },
        {
          "internalType": "uint256",
          "name": "tokenId",
          "type": "uint256"
        }
      ],
      "name": "transferFrom",
      "outputs": [],
      "stateMutability": "nonpayable",
      "type": "function"
    }
  ],
  "bytecode": "0x608060405260405180610f800160405280610f44815260200162004814610f449139600b90805190602001906200003892919062000283565b506040518060400160405280600d81526020017f3c2f746578743e3c2f7376673e00000000000000000000000000000000000000815250600c90805190602001906200008692919062000283565b5060405162005758380380620057588339818101604052810190620000ac9190620004d0565b6040518060400160405280601581526020017f54726170646f6f72204e616d65205365727669636500000000000000000000008152506040518060400160405280600381526020017f544e53000000000000000000000000000000000000000000000000000000000081525081600090805190602001906200013092919062000283565b5080600190805190602001906200014992919062000283565b50505080600890805190602001906200016492919062000283565b50620001b06040518060400160405280601081526020017f446f6d61696e7320436f6e747261637400000000000000000000000000000000815250620001b760201b6200134c1760201c565b5062000607565b6200025781604051602401620001ce91906200057e565b6040516020818303038152906040527f41304fac000000000000000000000000000000000000000000000000000000007bffffffffffffffffffffffffffffffffffffffffffffffffffffffff19166020820180517bffffffffffffffffffffffffffffffffffffffffffffffffffffffff83818316178352505050506200025a60201b60201c565b50565b60008151905060006a636f6e736f6c652e6c6f679050602083016000808483855afa5050505050565b8280546200029190620005d1565b90600052602060002090601f016020900481019282620002b5576000855562000301565b82601f10620002d057805160ff191683800117855562000301565b8280016001018555821562000301579182015b8281111562000300578251825591602001919060010190620002e3565b5b50905062000310919062000314565b5090565b5b808211156200032f57600081600090555060010162000315565b5090565b6000604051905090565b600080fd5b600080fd5b600080fd5b600080fd5b6000601f19601f8301169050919050565b7f4e487b7100000000000000000000000000000000000000000000000000000000600052604160045260246000fd5b6200039c8262000351565b810181811067ffffffffffffffff82111715620003be57620003bd62000362565b5b80604052505050565b6000620003d362000333565b9050620003e1828262000391565b919050565b600067ffffffffffffffff82111562000404576200040362000362565b5b6200040f8262000351565b9050602081019050919050565b60005b838110156200043c5780820151818401526020810190506200041f565b838111156200044c576000848401525b50505050565b6000620004696200046384620003e6565b620003c7565b9050828152602081018484840111156200048857620004876200034c565b5b620004958482856200041c565b509392505050565b600082601f830112620004b557620004b462000347565b5b8151620004c784826020860162000452565b91505092915050565b600060208284031215620004e957620004e86200033d565b5b600082015167ffffffffffffffff8111156200050a576200050962000342565b5b62000518848285016200049d565b91505092915050565b600081519050919050565b600082825260208201905092915050565b60006200054a8262000521565b6200055681856200052c565b9350620005688185602086016200041c565b620005738162000351565b840191505092915050565b600060208201905081810360008301526200059a81846200053d565b905092915050565b7f4e487b7100000000000000000000000000000000000000000000000000000000600052602260045260246000fd5b60006002820490506001821680620005ea57607f821691505b60208210811415620006015762000600620005a2565b5b50919050565b6141fd80620006176000396000f3fe6080604052600436106101145760003560e01c806370a08231116100a0578063bf40fac111610064578063bf40fac1146103c1578063c87b56dd146103fe578063e985e9c51461043b578063f2c298be14610478578063fe2c61981461049457610114565b806370a08231146102ca57806386e80b711461030757806395d89b4114610344578063a22cb4651461036f578063b88d4fde1461039857610114565b806323b872dd116100e757806323b872dd146101e75780632d5514321461021057806342842e0e1461023b5780636352211e146102645780636386953f146102a157610114565b806301ffc9a71461011957806306fdde0314610156578063081812fc14610181578063095ea7b3146101be575b600080fd5b34801561012557600080fd5b50610140600480360381019061013b9190612812565b6104d1565b60405161014d919061285a565b60405180910390f35b34801561016257600080fd5b5061016b6105b3565b604051610178919061290e565b60405180910390f35b34801561018d57600080fd5b506101a860048036038101906101a39190612966565b610645565b6040516101b591906129d4565b60405180910390f35b3480156101ca57600080fd5b506101e560048036038101906101e09190612a1b565b6106ca565b005b3480156101f357600080fd5b5061020e60048036038101906102099190612a5b565b6107e2565b005b34801561021c57600080fd5b50610225610842565b604051610232919061290e565b60405180910390f35b34801561024757600080fd5b50610262600480360381019061025d9190612a5b565b6108d0565b005b34801561027057600080fd5b5061028b60048036038101906102869190612966565b6108f0565b60405161029891906129d4565b60405180910390f35b3480156102ad57600080fd5b506102c860048036038101906102c39190612b13565b6109a2565b005b3480156102d657600080fd5b506102f160048036038101906102ec9190612b94565b610aed565b6040516102fe9190612bd0565b60405180910390f35b34801561031357600080fd5b5061032e60048036038101906103299190612beb565b610ba5565b60405161033b919061290e565b60405180910390f35b34801561035057600080fd5b50610359610c58565b604051610366919061290e565b60405180910390f35b34801561037b57600080fd5b5061039660048036038101906103919190612c64565b610cea565b005b3480156103a457600080fd5b506103bf60048036038101906103ba9190612dd4565b610d00565b005b3480156103cd57600080fd5b506103e860048036038101906103e39190612beb565b610d62565b6040516103f591906129d4565b60405180910390f35b34801561040a57600080fd5b5061042560048036038101906104209190612966565b610dad565b604051610432919061290e565b60405180910390f35b34801561044757600080fd5b50610462600480360381019061045d9190612e57565b610eff565b60405161046f919061285a565b60405180910390f35b610492600480360381019061048d9190612beb565b610f93565b005b3480156104a057600080fd5b506104bb60048036038101906104b69190612beb565b6112a8565b6040516104c89190612bd0565b60405180910390f35b60007f80ac58cd000000000000000000000000000000000000000000000000000000007bffffffffffffffffffffffffffffffffffffffffffffffffffffffff1916827bffffffffffffffffffffffffffffffffffffffffffffffffffffffff1916148061059c57507f5b5e139f000000000000000000000000000000000000000000000000000000007bffffffffffffffffffffffffffffffffffffffffffffffffffffffff1916827bffffffffffffffffffffffffffffffffffffffffffffffffffffffff1916145b806105ac57506105ab826113e5565b5b9050919050565b6060600080546105c290612ec6565b80601f01602080910402602001604051908101604052809291908181526020018280546105ee90612ec6565b801561063b5780601f106106105761010080835404028352916020019161063b565b820191906000526020600020905b81548152906001019060200180831161061e57829003601f168201915b5050505050905090565b60006106508261144f565b61068f576040517f08c379a000000000000000000000000000000000000000000000000000000000815260040161068690612f6a565b60405180910390fd5b6004600083815260200190815260200160002060009054906101000a900473ffffffffffffffffffffffffffffffffffffffff169050919050565b60006106d5826108f0565b90508073ffffffffffffffffffffffffffffffffffffffff168373ffffffffffffffffffffffffffffffffffffffff161415610746576040517f08c379a000000000000000000000000000000000000000000000000000000000815260040161073d90612ffc565b60405180910390fd5b8073ffffffffffffffffffffffffffffffffffffffff166107656114bb565b73ffffffffffffffffffffffffffffffffffffffff16148061079457506107938161078e6114bb565b610eff565b5b6107d3576040517f08c379a00000000000000000000000000000000000000000000000000000000081526004016107ca9061308e565b60405180910390fd5b6107dd83836114c3565b505050565b6107f36107ed6114bb565b8261157c565b610832576040517f08c379a000000000000000000000000000000000000000000000000000000000815260040161082990613120565b60405180910390fd5b61083d83838361165a565b505050565b6008805461084f90612ec6565b80601f016020809104026020016040519081016040528092919081815260200182805461087b90612ec6565b80156108c85780601f1061089d576101008083540402835291602001916108c8565b820191906000526020600020905b8154815290600101906020018083116108ab57829003601f168201915b505050505081565b6108eb83838360405180602001604052806000815250610d00565b505050565b6000806002600084815260200190815260200160002060009054906101000a900473ffffffffffffffffffffffffffffffffffffffff169050600073ffffffffffffffffffffffffffffffffffffffff168173ffffffffffffffffffffffffffffffffffffffff161415610999576040517f08c379a0000000000000000000000000000000000000000000000000000000008152600401610990906131b2565b60405180910390fd5b80915050919050565b3373ffffffffffffffffffffffffffffffffffffffff16600985856040516109cb929190613202565b908152602001604051809103902060009054906101000a900473ffffffffffffffffffffffffffffffffffffffff1673ffffffffffffffffffffffffffffffffffffffff1614610a50576040517f08c379a0000000000000000000000000000000000000000000000000000000008152600401610a479061328d565b60405180910390fd5b8181600a8686604051610a64929190613202565b90815260200160405180910390209190610a7f92919061267d565b50610ae76040518060600160405280602781526020016141a1602791393386868080601f016020809104026020016040519081016040528093929190818152602001838380828437600081840152601f19601f820116905080830192505050505050506118c1565b50505050565b60008073ffffffffffffffffffffffffffffffffffffffff168273ffffffffffffffffffffffffffffffffffffffff161415610b5e576040517f08c379a0000000000000000000000000000000000000000000000000000000008152600401610b559061331f565b60405180910390fd5b600360008373ffffffffffffffffffffffffffffffffffffffff1673ffffffffffffffffffffffffffffffffffffffff168152602001908152602001600020549050919050565b6060600a8383604051610bb9929190613202565b90815260200160405180910390208054610bd290612ec6565b80601f0160208091040260200160405190810160405280929190818152602001828054610bfe90612ec6565b8015610c4b5780601f10610c2057610100808354040283529160200191610c4b565b820191906000526020600020905b815481529060010190602001808311610c2e57829003601f168201915b5050505050905092915050565b606060018054610c6790612ec6565b80601f0160208091040260200160405190810160405280929190818152602001828054610c9390612ec6565b8015610ce05780601f10610cb557610100808354040283529160200191610ce0565b820191906000526020600020905b815481529060010190602001808311610cc357829003601f168201915b5050505050905090565b610cfc610cf56114bb565b8383611960565b5050565b610d11610d0b6114bb565b8361157c565b610d50576040517f08c379a0000000000000000000000000000000000000000000000000000000008152600401610d4790613120565b60405180910390fd5b610d5c84848484611acd565b50505050565b600060098383604051610d76929190613202565b908152602001604051809103902060009054906101000a900473ffffffffffffffffffffffffffffffffffffffff16905092915050565b6060610db88261144f565b610df7576040517f08c379a0000000000000000000000000000000000000000000000000000000008152600401610dee906133b1565b60405180910390fd5b6000600660008481526020019081526020016000208054610e1790612ec6565b80601f0160208091040260200160405190810160405280929190818152602001828054610e4390612ec6565b8015610e905780601f10610e6557610100808354040283529160200191610e90565b820191906000526020600020905b815481529060010190602001808311610e7357829003601f168201915b505050505090506000610ea1611b29565b9050600081511415610eb7578192505050610efa565b600082511115610eec578082604051602001610ed4929190613402565b60405160208183030381529060405292505050610efa565b610ef584611b40565b925050505b919050565b6000600560008473ffffffffffffffffffffffffffffffffffffffff1673ffffffffffffffffffffffffffffffffffffffff16815260200190815260200160002060008373ffffffffffffffffffffffffffffffffffffffff1673ffffffffffffffffffffffffffffffffffffffff16815260200190815260200160002060009054906101000a900460ff16905092915050565b600073ffffffffffffffffffffffffffffffffffffffff1660098383604051610fbd929190613202565b908152602001604051809103902060009054906101000a900473ffffffffffffffffffffffffffffffffffffffff1673ffffffffffffffffffffffffffffffffffffffff161461100c57600080fd5b600061101883836112a8565b90508034101561105d576040517f08c379a000000000000000000000000000000000000000000000000000000000815260040161105490613498565b60405180910390fd5b60008383600860405160200161107593929190613598565b60405160208183030381529060405290506000600b82600c60405160200161109f939291906135c9565b604051602081830303815290604052905060006110bc6007611be7565b905060006110c984611bf5565b905060006110d682611daa565b90506111406040518060600160405280602d8152602001614174602d9139338a8a8080601f016020809104026020016040519081016040528093929190818152602001838380828437600081840152601f19601f8201169050808301925050505050505086611f0b565b6000611178898961115088611fad565b856040516020016111649493929190613776565b604051602081830303815290604052611fad565b905060008160405160200161118d9190613821565b60405160208183030381529060405290506111bf6040518060600160405280603981526020016140c26039913961134c565b6111fe6040518060400160405280600e81526020017f46696e616c20746f6b656e55524900000000000000000000000000000000000081525082612126565b61121f6040518060600160405280603981526020016140fb6039913961134c565b61122933866121c2565b61123385826121e0565b3360098b8b604051611246929190613202565b908152602001604051809103902060006101000a81548173ffffffffffffffffffffffffffffffffffffffff021916908373ffffffffffffffffffffffffffffffffffffffff16021790555061129c6007612254565b50505050505050505050565b6000806112f884848080601f016020809104026020016040519081016040528093929190818152602001838380828437600081840152601f19601f82011690508083019250505050505050611bf5565b90506000811161130757600080fd5b60038114156113205766b1a2bc2ec50000915050611346565b600481141561133957666a94d74f430000915050611346565b67016345785d8a00009150505b92915050565b6113e281604051602401611360919061290e565b6040516020818303038152906040527f41304fac000000000000000000000000000000000000000000000000000000007bffffffffffffffffffffffffffffffffffffffffffffffffffffffff19166020820180517bffffffffffffffffffffffffffffffffffffffffffffffffffffffff838183161783525050505061226a565b50565b60007f01ffc9a7000000000000000000000000000000000000000000000000000000007bffffffffffffffffffffffffffffffffffffffffffffffffffffffff1916827bffffffffffffffffffffffffffffffffffffffffffffffffffffffff1916149050919050565b60008073ffffffffffffffffffffffffffffffffffffffff166002600084815260200190815260200160002060009054906101000a900473ffffffffffffffffffffffffffffffffffffffff1673ffffffffffffffffffffffffffffffffffffffff1614159050919050565b600033905090565b816004600083815260200190815260200160002060006101000a81548173ffffffffffffffffffffffffffffffffffffffff021916908373ffffffffffffffffffffffffffffffffffffffff160217905550808273ffffffffffffffffffffffffffffffffffffffff16611536836108f0565b73ffffffffffffffffffffffffffffffffffffffff167f8c5be1e5ebec7d5bd14f71427d1e84f3dd0314c0f7b2291e5b200ac8c7c3b92560405160405180910390a45050565b60006115878261144f565b6115c6576040517f08c379a00000000000000000000000000000000000000000000000000000000081526004016115bd906138b5565b60405180910390fd5b60006115d1836108f0565b90508073ffffffffffffffffffffffffffffffffffffffff168473ffffffffffffffffffffffffffffffffffffffff16148061164057508373ffffffffffffffffffffffffffffffffffffffff1661162884610645565b73ffffffffffffffffffffffffffffffffffffffff16145b8061165157506116508185610eff565b5b91505092915050565b8273ffffffffffffffffffffffffffffffffffffffff1661167a826108f0565b73ffffffffffffffffffffffffffffffffffffffff16146116d0576040517f08c379a00000000000000000000000000000000000000000000000000000000081526004016116c790613947565b60405180910390fd5b600073ffffffffffffffffffffffffffffffffffffffff168273ffffffffffffffffffffffffffffffffffffffff161415611740576040517f08c379a0000000000000000000000000000000000000000000000000000000008152600401611737906139d9565b60405180910390fd5b61174b838383612293565b6117566000826114c3565b6001600360008573ffffffffffffffffffffffffffffffffffffffff1673ffffffffffffffffffffffffffffffffffffffff16815260200190815260200160002060008282546117a69190613a28565b925050819055506001600360008473ffffffffffffffffffffffffffffffffffffffff1673ffffffffffffffffffffffffffffffffffffffff16815260200190815260200160002060008282546117fd9190613a5c565b92505081905550816002600083815260200190815260200160002060006101000a81548173ffffffffffffffffffffffffffffffffffffffff021916908373ffffffffffffffffffffffffffffffffffffffff160217905550808273ffffffffffffffffffffffffffffffffffffffff168473ffffffffffffffffffffffffffffffffffffffff167fddf252ad1be2c89b69c2b068fc378daa952ba7f163c4a11628f55a4df523b3ef60405160405180910390a46118bc838383612298565b505050565b61195b8383836040516024016118d993929190613ab2565b6040516020818303038152906040527fe0e9ad4f000000000000000000000000000000000000000000000000000000007bffffffffffffffffffffffffffffffffffffffffffffffffffffffff19166020820180517bffffffffffffffffffffffffffffffffffffffffffffffffffffffff838183161783525050505061226a565b505050565b8173ffffffffffffffffffffffffffffffffffffffff168373ffffffffffffffffffffffffffffffffffffffff1614156119cf576040517f08c379a00000000000000000000000000000000000000000000000000000000081526004016119c690613b43565b60405180910390fd5b80600560008573ffffffffffffffffffffffffffffffffffffffff1673ffffffffffffffffffffffffffffffffffffffff16815260200190815260200160002060008473ffffffffffffffffffffffffffffffffffffffff1673ffffffffffffffffffffffffffffffffffffffff16815260200190815260200160002060006101000a81548160ff0219169083151502179055508173ffffffffffffffffffffffffffffffffffffffff168373ffffffffffffffffffffffffffffffffffffffff167f17307eab39ab6107e8899845ad3d59bd9653f200f220920489ca2b5937696c3183604051611ac0919061285a565b60405180910390a3505050565b611ad884848461165a565b611ae48484848461229d565b611b23576040517f08c379a0000000000000000000000000000000000000000000000000000000008152600401611b1a90613bd5565b60405180910390fd5b50505050565b606060405180602001604052806000815250905090565b6060611b4b8261144f565b611b8a576040517f08c379a0000000000000000000000000000000000000000000000000000000008152600401611b8190613c67565b60405180910390fd5b6000611b94611b29565b90506000815111611bb45760405180602001604052806000815250611bdf565b80611bbe84611daa565b604051602001611bcf929190613402565b6040516020818303038152906040525b915050919050565b600081600001549050919050565b60008060008084519050600092505b80821015611d9f576000858381518110611c2157611c20613c87565b5b602001015160f81c60f81b9050608060f81b817effffffffffffffffffffffffffffffffffffffffffffffffffffffffffffff19161015611c7057600183611c699190613a5c565b9250611d8b565b60e060f81b817effffffffffffffffffffffffffffffffffffffffffffffffffffffffffffff19161015611cb257600283611cab9190613a5c565b9250611d8a565b60f060f81b817effffffffffffffffffffffffffffffffffffffffffffffffffffffffffffff19161015611cf457600383611ced9190613a5c565b9250611d89565b60f8801b817effffffffffffffffffffffffffffffffffffffffffffffffffffffffffffff19161015611d3557600483611d2e9190613a5c565b9250611d88565b60fc60f81b817effffffffffffffffffffffffffffffffffffffffffffffffffffffffffffff19161015611d7757600583611d709190613a5c565b9250611d87565b600683611d849190613a5c565b92505b5b5b5b5b508280611d9790613cb6565b935050611c04565b829350505050919050565b60606000821415611df2576040518060400160405280600181526020017f30000000000000000000000000000000000000000000000000000000000000008152509050611f06565b600082905060005b60008214611e24578080611e0d90613cb6565b915050600a82611e1d9190613d2e565b9150611dfa565b60008167ffffffffffffffff811115611e4057611e3f612ca9565b5b6040519080825280601f01601f191660200182016040528015611e725781602001600182028036833780820191505090505b5090505b60008514611eff57600182611e8b9190613a28565b9150600a85611e9a9190613d5f565b6030611ea69190613a5c565b60f81b818381518110611ebc57611ebb613c87565b5b60200101907effffffffffffffffffffffffffffffffffffffffffffffffffffffffffffff1916908160001a905350600a85611ef89190613d2e565b9450611e76565b8093505050505b919050565b611fa784848484604051602401611f259493929190613d90565b6040516020818303038152906040527f8f624be9000000000000000000000000000000000000000000000000000000007bffffffffffffffffffffffffffffffffffffffffffffffffffffffff19166020820180517bffffffffffffffffffffffffffffffffffffffffffffffffffffffff838183161783525050505061226a565b50505050565b6060600082511415611fd057604051806020016040528060008152509050612121565b60006040518060600160405280604081526020016141346040913990506000600360028551611fff9190613a5c565b6120099190613d2e565b60046120159190613de3565b905060006020826120269190613a5c565b67ffffffffffffffff81111561203f5761203e612ca9565b5b6040519080825280601f01601f1916602001820160405280156120715781602001600182028036833780820191505090505b509050818152600183018586518101602084015b818310156120e0576003830192508251603f8160121c168501518253600182019150603f81600c1c168501518253600182019150603f8160061c168501518253600182019150603f8116850151825360018201915050612085565b6003895106600181146120fa576002811461210a57612115565b613d3d60f01b6002830352612115565b603d60f81b60018303525b50505050508093505050505b919050565b6121be828260405160240161213c929190613e3d565b6040516020818303038152906040527f4b5c4277000000000000000000000000000000000000000000000000000000007bffffffffffffffffffffffffffffffffffffffffffffffffffffffff19166020820180517bffffffffffffffffffffffffffffffffffffffffffffffffffffffff838183161783525050505061226a565b5050565b6121dc828260405180602001604052806000815250612425565b5050565b6121e98261144f565b612228576040517f08c379a000000000000000000000000000000000000000000000000000000000815260040161221f90613ee6565b60405180910390fd5b8060066000848152602001908152602001600020908051906020019061224f929190612703565b505050565b6001816000016000828254019250508190555050565b60008151905060006a636f6e736f6c652e6c6f679050602083016000808483855afa5050505050565b505050565b505050565b60006122be8473ffffffffffffffffffffffffffffffffffffffff16612480565b15612418578373ffffffffffffffffffffffffffffffffffffffff1663150b7a026122e76114bb565b8786866040518563ffffffff1660e01b81526004016123099493929190613f5b565b6020604051808303816000875af192505050801561234557506040513d601f19601f820116820180604052508101906123429190613fbc565b60015b6123c8573d8060008114612375576040519150601f19603f3d011682016040523d82523d6000602084013e61237a565b606091505b506000815114156123c0576040517f08c379a00000000000000000000000000000000000000000000000000000000081526004016123b790613bd5565b60405180910390fd5b805181602001fd5b63150b7a0260e01b7bffffffffffffffffffffffffffffffffffffffffffffffffffffffff1916817bffffffffffffffffffffffffffffffffffffffffffffffffffffffff19161491505061241d565b600190505b949350505050565b61242f83836124a3565b61243c600084848461229d565b61247b576040517f08c379a000000000000000000000000000000000000000000000000000000000815260040161247290613bd5565b60405180910390fd5b505050565b6000808273ffffffffffffffffffffffffffffffffffffffff163b119050919050565b600073ffffffffffffffffffffffffffffffffffffffff168273ffffffffffffffffffffffffffffffffffffffff161415612513576040517f08c379a000000000000000000000000000000000000000000000000000000000815260040161250a90614035565b60405180910390fd5b61251c8161144f565b1561255c576040517f08c379a0000000000000000000000000000000000000000000000000000000008152600401612553906140a1565b60405180910390fd5b61256860008383612293565b6001600360008473ffffffffffffffffffffffffffffffffffffffff1673ffffffffffffffffffffffffffffffffffffffff16815260200190815260200160002060008282546125b89190613a5c565b92505081905550816002600083815260200190815260200160002060006101000a81548173ffffffffffffffffffffffffffffffffffffffff021916908373ffffffffffffffffffffffffffffffffffffffff160217905550808273ffffffffffffffffffffffffffffffffffffffff16600073ffffffffffffffffffffffffffffffffffffffff167fddf252ad1be2c89b69c2b068fc378daa952ba7f163c4a11628f55a4df523b3ef60405160405180910390a461267960008383612298565b5050565b82805461268990612ec6565b90600052602060002090601f0160209004810192826126ab57600085556126f2565b82601f106126c457803560ff19168380011785556126f2565b828001600101855582156126f2579182015b828111156126f15782358255916020019190600101906126d6565b5b5090506126ff9190612789565b5090565b82805461270f90612ec6565b90600052602060002090601f0160209004810192826127315760008555612778565b82601f1061274a57805160ff1916838001178555612778565b82800160010185558215612778579182015b8281111561277757825182559160200191906001019061275c565b5b5090506127859190612789565b5090565b5b808211156127a257600081600090555060010161278a565b5090565b6000604051905090565b600080fd5b600080fd5b60007fffffffff0000000000000000000000000000000000000000000000000000000082169050919050565b6127ef816127ba565b81146127fa57600080fd5b50565b60008135905061280c816127e6565b92915050565b600060208284031215612828576128276127b0565b5b6000612836848285016127fd565b91505092915050565b60008115159050919050565b6128548161283f565b82525050565b600060208201905061286f600083018461284b565b92915050565b600081519050919050565b600082825260208201905092915050565b60005b838110156128af578082015181840152602081019050612894565b838111156128be576000848401525b50505050565b6000601f19601f8301169050919050565b60006128e082612875565b6128ea8185612880565b93506128fa818560208601612891565b612903816128c4565b840191505092915050565b6000602082019050818103600083015261292881846128d5565b905092915050565b6000819050919050565b61294381612930565b811461294e57600080fd5b50565b6000813590506129608161293a565b92915050565b60006020828403121561297c5761297b6127b0565b5b600061298a84828501612951565b91505092915050565b600073ffffffffffffffffffffffffffffffffffffffff82169050919050565b60006129be82612993565b9050919050565b6129ce816129b3565b82525050565b60006020820190506129e960008301846129c5565b92915050565b6129f8816129b3565b8114612a0357600080fd5b50565b600081359050612a15816129ef565b92915050565b60008060408385031215612a3257612a316127b0565b5b6000612a4085828601612a06565b9250506020612a5185828601612951565b9150509250929050565b600080600060608486031215612a7457612a736127b0565b5b6000612a8286828701612a06565b9350506020612a9386828701612a06565b9250506040612aa486828701612951565b9150509250925092565b600080fd5b600080fd5b600080fd5b60008083601f840112612ad357612ad2612aae565b5b8235905067ffffffffffffffff811115612af057612aef612ab3565b5b602083019150836001820283011115612b0c57612b0b612ab8565b5b9250929050565b60008060008060408587031215612b2d57612b2c6127b0565b5b600085013567ffffffffffffffff811115612b4b57612b4a6127b5565b5b612b5787828801612abd565b9450945050602085013567ffffffffffffffff811115612b7a57612b796127b5565b5b612b8687828801612abd565b925092505092959194509250565b600060208284031215612baa57612ba96127b0565b5b6000612bb884828501612a06565b91505092915050565b612bca81612930565b82525050565b6000602082019050612be56000830184612bc1565b92915050565b60008060208385031215612c0257612c016127b0565b5b600083013567ffffffffffffffff811115612c2057612c1f6127b5565b5b612c2c85828601612abd565b92509250509250929050565b612c418161283f565b8114612c4c57600080fd5b50565b600081359050612c5e81612c38565b92915050565b60008060408385031215612c7b57612c7a6127b0565b5b6000612c8985828601612a06565b9250506020612c9a85828601612c4f565b9150509250929050565b600080fd5b7f4e487b7100000000000000000000000000000000000000000000000000000000600052604160045260246000fd5b612ce1826128c4565b810181811067ffffffffffffffff82111715612d0057612cff612ca9565b5b80604052505050565b6000612d136127a6565b9050612d1f8282612cd8565b919050565b600067ffffffffffffffff821115612d3f57612d3e612ca9565b5b612d48826128c4565b9050602081019050919050565b82818337600083830152505050565b6000612d77612d7284612d24565b612d09565b905082815260208101848484011115612d9357612d92612ca4565b5b612d9e848285612d55565b509392505050565b600082601f830112612dbb57612dba612aae565b5b8135612dcb848260208601612d64565b91505092915050565b60008060008060808587031215612dee57612ded6127b0565b5b6000612dfc87828801612a06565b9450506020612e0d87828801612a06565b9350506040612e1e87828801612951565b925050606085013567ffffffffffffffff811115612e3f57612e3e6127b5565b5b612e4b87828801612da6565b91505092959194509250565b60008060408385031215612e6e57612e6d6127b0565b5b6000612e7c85828601612a06565b9250506020612e8d85828601612a06565b9150509250929050565b7f4e487b7100000000000000000000000000000000000000000000000000000000600052602260045260246000fd5b60006002820490506001821680612ede57607f821691505b60208210811415612ef257612ef1612e97565b5b50919050565b7f4552433732313a20617070726f76656420717565727920666f72206e6f6e657860008201527f697374656e7420746f6b656e0000000000000000000000000000000000000000602082015250565b6000612f54602c83612880565b9150612f5f82612ef8565b604082019050919050565b60006020820190508181036000830152612f8381612f47565b9050919050565b7f4552433732313a20617070726f76616c20746f2063757272656e74206f776e6560008201527f7200000000000000000000000000000000000000000000000000000000000000602082015250565b6000612fe6602183612880565b9150612ff182612f8a565b604082019050919050565b6000602082019050818103600083015261301581612fd9565b9050919050565b7f4552433732313a20617070726f76652063616c6c6572206973206e6f74206f7760008201527f6e6572206e6f7220617070726f76656420666f7220616c6c0000000000000000602082015250565b6000613078603883612880565b91506130838261301c565b604082019050919050565b600060208201905081810360008301526130a78161306b565b9050919050565b7f4552433732313a207472616e736665722063616c6c6572206973206e6f74206f60008201527f776e6572206e6f7220617070726f766564000000000000000000000000000000602082015250565b600061310a603183612880565b9150613115826130ae565b604082019050919050565b60006020820190508181036000830152613139816130fd565b9050919050565b7f4552433732313a206f776e657220717565727920666f72206e6f6e657869737460008201527f656e7420746f6b656e0000000000000000000000000000000000000000000000602082015250565b600061319c602983612880565b91506131a782613140565b604082019050919050565b600060208201905081810360008301526131cb8161318f565b9050919050565b600081905092915050565b60006131e983856131d2565b93506131f6838584612d55565b82840190509392505050565b600061320f8284866131dd565b91508190509392505050565b7f596f752063616e206f6e6c792065646974207265636f726473206f6620646f6d60008201527f61696e206173736f636961746564207769746820796f75722061646472657373602082015250565b6000613277604083612880565b91506132828261321b565b604082019050919050565b600060208201905081810360008301526132a68161326a565b9050919050565b7f4552433732313a2062616c616e636520717565727920666f7220746865207a6560008201527f726f206164647265737300000000000000000000000000000000000000000000602082015250565b6000613309602a83612880565b9150613314826132ad565b604082019050919050565b60006020820190508181036000830152613338816132fc565b9050919050565b7f45524337323155524953746f726167653a2055524920717565727920666f722060008201527f6e6f6e6578697374656e7420746f6b656e000000000000000000000000000000602082015250565b600061339b603183612880565b91506133a68261333f565b604082019050919050565b600060208201905081810360008301526133ca8161338e565b9050919050565b60006133dc82612875565b6133e681856131d2565b93506133f6818560208601612891565b80840191505092915050565b600061340e82856133d1565b915061341a82846133d1565b91508190509392505050565b7f506c6561736520706179206d6f7265204d4154494320746f207265676973746560008201527f72206120646f6d61696e00000000000000000000000000000000000000000000602082015250565b6000613482602a83612880565b915061348d82613426565b604082019050919050565b600060208201905081810360008301526134b181613475565b9050919050565b7f2e00000000000000000000000000000000000000000000000000000000000000600082015250565b60006134ee6001836131d2565b91506134f9826134b8565b600182019050919050565b60008190508160005260206000209050919050565b6000815461352681612ec6565b61353081866131d2565b9450600182166000811461354b576001811461355c5761358f565b60ff1983168652818601935061358f565b61356585613504565b60005b8381101561358757815481890152600182019150602081019050613568565b838801955050505b50505092915050565b60006135a58285876131dd565b91506135b0826134e1565b91506135bc8284613519565b9150819050949350505050565b60006135d58286613519565b91506135e182856133d1565b91506135ed8284613519565b9150819050949350505050565b7f7b226e616d65223a202200000000000000000000000000000000000000000000600082015250565b6000613630600a836131d2565b915061363b826135fa565b600a82019050919050565b7f222c20226465736372697074696f6e223a20224120646f6d61696e206f6e207460008201527f68652054726170646f6f72204e616d652053657276696365222c2022696d616760208201527f65223a2022646174613a696d6167652f7376672b786d6c3b6261736536342c00604082015250565b60006136c8605f836131d2565b91506136d382613646565b605f82019050919050565b7f222c226c656e677468223a220000000000000000000000000000000000000000600082015250565b6000613714600c836131d2565b915061371f826136de565b600c82019050919050565b7f227d000000000000000000000000000000000000000000000000000000000000600082015250565b60006137606002836131d2565b915061376b8261372a565b600282019050919050565b600061378182613623565b915061378e8286886131dd565b9150613799826136bb565b91506137a582856133d1565b91506137b082613707565b91506137bc82846133d1565b91506137c782613753565b915081905095945050505050565b7f646174613a6170706c69636174696f6e2f6a736f6e3b6261736536342c000000600082015250565b600061380b601d836131d2565b9150613816826137d5565b601d82019050919050565b600061382c826137fe565b915061383882846133d1565b915081905092915050565b7f4552433732313a206f70657261746f7220717565727920666f72206e6f6e657860008201527f697374656e7420746f6b656e0000000000000000000000000000000000000000602082015250565b600061389f602c83612880565b91506138aa82613843565b604082019050919050565b600060208201905081810360008301526138ce81613892565b9050919050565b7f4552433732313a207472616e736665722066726f6d20696e636f72726563742060008201527f6f776e6572000000000000000000000000000000000000000000000000000000602082015250565b6000613931602583612880565b915061393c826138d5565b604082019050919050565b6000602082019050818103600083015261396081613924565b9050919050565b7f4552433732313a207472616e7366657220746f20746865207a65726f2061646460008201527f7265737300000000000000000000000000000000000000000000000000000000602082015250565b60006139c3602483612880565b91506139ce82613967565b604082019050919050565b600060208201905081810360008301526139f2816139b6565b9050919050565b7f4e487b7100000000000000000000000000000000000000000000000000000000600052601160045260246000fd5b6000613a3382612930565b9150613a3e83612930565b925082821015613a5157613a506139f9565b5b828203905092915050565b6000613a6782612930565b9150613a7283612930565b9250827fffffffffffffffffffffffffffffffffffffffffffffffffffffffffffffffff03821115613aa757613aa66139f9565b5b828201905092915050565b60006060820190508181036000830152613acc81866128d5565b9050613adb60208301856129c5565b8181036040830152613aed81846128d5565b9050949350505050565b7f4552433732313a20617070726f766520746f2063616c6c657200000000000000600082015250565b6000613b2d601983612880565b9150613b3882613af7565b602082019050919050565b60006020820190508181036000830152613b5c81613b20565b9050919050565b7f4552433732313a207472616e7366657220746f206e6f6e20455243373231526560008201527f63656976657220696d706c656d656e7465720000000000000000000000000000602082015250565b6000613bbf603283612880565b9150613bca82613b63565b604082019050919050565b60006020820190508181036000830152613bee81613bb2565b9050919050565b7f4552433732314d657461646174613a2055524920717565727920666f72206e6f60008201527f6e6578697374656e7420746f6b656e0000000000000000000000000000000000602082015250565b6000613c51602f83612880565b9150613c5c82613bf5565b604082019050919050565b60006020820190508181036000830152613c8081613c44565b9050919050565b7f4e487b7100000000000000000000000000000000000000000000000000000000600052603260045260246000fd5b6000613cc182612930565b91507fffffffffffffffffffffffffffffffffffffffffffffffffffffffffffffffff821415613cf457613cf36139f9565b5b600182019050919050565b7f4e487b7100000000000000000000000000000000000000000000000000000000600052601260045260246000fd5b6000613d3982612930565b9150613d4483612930565b925082613d5457613d53613cff565b5b828204905092915050565b6000613d6a82612930565b9150613d7583612930565b925082613d8557613d84613cff565b5b828206905092915050565b60006080820190508181036000830152613daa81876128d5565b9050613db960208301866129c5565b8181036040830152613dcb81856128d5565b9050613dda6060830184612bc1565b95945050505050565b6000613dee82612930565b9150613df983612930565b9250817fffffffffffffffffffffffffffffffffffffffffffffffffffffffffffffffff0483118215151615613e3257613e316139f9565b5b828202905092915050565b60006040820190508181036000830152613e5781856128d5565b90508181036020830152613e6b81846128d5565b90509392505050565b7f45524337323155524953746f726167653a2055524920736574206f66206e6f6e60008201527f6578697374656e7420746f6b656e000000000000000000000000000000000000602082015250565b6000613ed0602e83612880565b9150613edb82613e74565b604082019050919050565b60006020820190508181036000830152613eff81613ec3565b9050919050565b600081519050919050565b600082825260208201905092915050565b6000613f2d82613f06565b613f378185613f11565b9350613f47818560208601612891565b613f50816128c4565b840191505092915050565b6000608082019050613f7060008301876129c5565b613f7d60208301866129c5565b613f8a6040830185612bc1565b8181036060830152613f9c8184613f22565b905095945050505050565b600081519050613fb6816127e6565b92915050565b600060208284031215613fd257613fd16127b0565b5b6000613fe084828501613fa7565b91505092915050565b7f4552433732313a206d696e7420746f20746865207a65726f2061646472657373600082015250565b600061401f602083612880565b915061402a82613fe9565b602082019050919050565b6000602082019050818103600083015261404e81614012565b9050919050565b7f4552433732313a20746f6b656e20616c7265616479206d696e74656400000000600082015250565b600061408b601c83612880565b915061409682614055565b602082019050919050565b600060208201905081810360008301526140ba8161407e565b905091905056fe0a2d2d2d2d2d2d2d2d2d2d2d2d2d2d2d2d2d2d2d2d2d2d2d2d2d2d2d2d2d2d2d2d2d2d2d2d2d2d2d2d2d2d2d2d2d2d2d2d2d2d2d2d2d2d2d2d2d2d2d2d2d2d2d2d2d2d2d2d2d2d2d2d2d2d2d2d2d2d2d2d2d2d2d2d2d2d2d2d2d2d2d2d2d2d2d2d2d2d2d2d2d2d2d2d2d2d2d2d2d2d2d2d0a4142434445464748494a4b4c4d4e4f505152535455565758595a6162636465666768696a6b6c6d6e6f707172737475767778797a303132333435363738392b2f2573206861732072656769737465726564206120646f6d61696e202573207769746820746f6b656e496420257325732068617320707574207570206120736f6e67206f6e20746865697220646f6d61696e202573a26469706673582212203962ba0133077d2f08e12de17e5d03a7459e3d442c8c40decad3b1cf380fb9ac64736f6c634300080b00333c73766720786d6c6e733d22687474703a2f2f7777772e77332e6f72672f323030302f737667222076696577426f783d2230203020343030203430302220786d6c3a73706163653d227072657365727665222077696474683d2234303022206865696768743d22343030223e3c7061746820643d224d3230302037362e323936632d32392e363820302d35332e37342034332e3430342d35332e37342037372e38383820302031362e37363420352e37322033312e3935322031342e3937362034332e3136382031312e3120372e342032342e3432342031312e3732382033382e3736342031312e3732387332372e3636342d342e3332382033382e3736342d31312e37323863392e3235362d31312e3231362031342e3937362d32362e3430342031342e3937362d34332e31363820302d33342e34382d32342e30362d37372e3838382d35332e37342d37372e3838387a222066696c6c3d22233030303030222f3e3c7061746820643d224d3233362e3134203138342e343638632d392e393220372e3931322d32322e3436382031322e3636382d33362e31342031322e363638732d32362e32322d342e3735362d33362e31342d31322e3636386139312e3934322039312e3934322030203020302d342e393420322e323536632d2e3737362e3338342d312e3532382e3831322d322e32383820312e32323420312e35383420322e363420332e33303420352e31363420352e32313620372e3438342031302e39323420372e3238342032342e3033362031312e3534342033382e3134382031312e3534347332372e3232342d342e32362033382e3134382d31312e35343463312e3931322d322e33313620332e3633322d342e38343420352e3231362d372e3438342d2e37362d2e3431322d312e3530382d2e38342d322e3238382d312e3232346138382e39322038382e39322030203020302d342e3933322d322e3235367a222066696c6c3d22233030303030222f3e3c7061746820643d224d3230362e383834203130312e343732632d322e3235322d2e3533322d342e3534382d2e3833362d362e3838342d2e383336732d342e3633322e3330342d362e3838342e383336632d32352e333620352e3936342d34342e3933322032332e3732382d34342e3933322035342e3236203020332e3838342e33353220372e3636342e39362031312e33346135382e3331322035382e3331322030203020302031342e3731322031372e33393663392e393220372e3931322032322e3436382031322e3636382033362e31342031322e3636387332362e32322d342e3735362033362e31342d31322e3636386135382e322035382e322030203020302031342e3731322d31372e333936632e3630382d332e3637362e39362d372e3435362e39362d31312e33342e3030382d33302e3533322d31392e3536342d34382e3239362d34342e3932342d35342e32367a222066696c6c3d22233030303030222f3e3c706174682066696c6c3d22236631663564622220643d224d323434203134312e3533326134342036312e3338382030203020312d34342036312e3338382034342036312e3338382030203020312d34342d36312e3338382034342036312e33383820302030203120383820307a222f3e3c7061746820643d224d3230362e383834203130312e343732632d322e3235322d2e3533322d342e3534382d2e3833362d362e3838342d2e383336732d342e3633322e3330342d362e3838342e38333663322e32362d2e32363820342e3535322d2e34343420362e3838342d2e34343473342e3632342e31373620362e3838342e3434347a6d2d35302e35322038362e36322e3236382d2e3134346136332e3839322036332e3839322030203020312d332e30382d352e373336632e38353620322e303220312e37373220332e39393620322e38313220352e38387a6d38372e323732203063312e30342d312e38383420312e39362d332e383620322e3831362d352e38386136332e3334392036332e3334392030203020312d332e303820352e3733366c2e3236342e3134347a222066696c6c3d226e6f6e65222f3e3c7061746820643d224d3236342e343336203230332e333132632d382e3135362d382e30322d31302e3331362d32302e3234382d342e3930382d33302e3333326136372e31322036372e313220302030203020372e3936342d33312e38313263302d33372e3237362d33302e3231362d38342e3139362d36372e3439322d38342e313936732d36372e3439322034362e3932342d36372e3439322038342e31393663302031312e35303820322e3838342032322e33333620372e3936342033312e38313220352e3430382031302e303820332e3234382032322e3330382d342e3930382033302e333332433131392e373532203231382e383620313130203234302e30393220313130203236332e3534387635372e38363863302031312e3933362031302e30382032312e3631322032322e3531322032312e363132683133342e39386331322e34333220302032322e3531322d392e3637362032322e3531322d32312e363132762d35372e383638632d2e3030342d32332e3435362d392e37362d34342e3638382d32352e3536382d36302e3233367a6d2d31332e35382d33362e32346136362e3839322036362e3839322030203020312d342e3430342031352e3134632d2e38353620322e30322d312e37373220332e3939362d322e38313620352e38386c2d2e3236382d2e3134346136312e34342036312e34342030203020312d352e32313620372e343834632d31302e39323420372e3238342d32342e3033362031312e3534342d33382e3134382031312e353434732d32372e3232342d342e32362d33382e3134382d31312e3534346136312e3133362036312e3133362030203020312d352e3231362d372e3438346c2d2e3236382e313434632d312e30342d312e3838342d312e39362d332e38362d322e3831322d352e38386136362e36362036362e36362030203020312d342e3430342d31352e3134342036392e3336342036392e3336342030203020312d2e39362d31312e333463302d33302e3533322031392e3537322d34382e3239322034342e3933322d35342e323620322e3235322d2e35333220342e3534382d2e38333620362e3838342d2e38333673342e3633322e33303420362e3838342e3833366332352e333620352e3936342034342e3933322032332e3732382034342e3933322035342e32366137302e37322037302e37322030203020312d2e3937322031312e3334347a222066696c6c3d22233030303030222f3e3c706174682066696c6c3d226e6f6e6522207374726f6b653d2272656422207374726f6b652d77696474683d223822207374726f6b652d6c696e656361703d22726f756e6422207374726f6b652d6d697465726c696d69743d2231302220643d224d3138362e383238203232342e3937327634312e35222f3e3c706174682066696c6c3d227265642220643d224d3139342e383238203236362e343732613820382030203020312d382038203820382030203020312d382d382038203820302030203120313620307a222f3e3c706174682066696c6c3d226e6f6e6522207374726f6b653d2272656422207374726f6b652d77696474683d223822207374726f6b652d6c696e656361703d22726f756e6422207374726f6b652d6d697465726c696d69743d2231302220643d224d3231302e383238203232342e3937327637332e35222f3e3c706174682066696c6c3d227265642220643d224d3231382e383238203239382e343732613820382030203020312d382038203820382030203020312d382d382038203820302030203120313620307a222f3e3c7061746820643d224d3136352e323838203134332e3263322e3435322d312e38353220342e3930342d322e383220372e3335362d332e34373220322e3435322d2e37303820342e3930342d2e38393620372e3335362d2e39373620322e3435322e30383820342e3930342e323820372e3335362e39383820322e3435322e36353620342e39303420312e36313620372e33353620332e343676312e364c313830203134342e3538346c2d31342e3731322e323136762d312e367a6d3430203063322e3435322d312e37343820342e3930342d322e36363420372e3335362d332e32373620322e3435322d2e36363820342e3930342d2e38343820372e3335362d2e393220322e3435322e30383420342e3930342e32363420372e3335362e39333220322e3435322e36313620342e39303420312e35323820372e33353620332e32363476312e364c323230203134342e3535366c2d31342e3731322e323434762d312e367a6d2d33392e352d31392e3030382032382e34323420372e3631366d2d32382e3231362d382e33383863352e3336382d312e3038382031302e3235322d2e3335362031352e3031322e38323820342e37313220312e33363420392e33303420332e3137322031332e34313220362e3738386c2d2e34313620312e353434632d342e3635362d312e3537362d392e3431322d322e3736382d31342e3131362d342e3136342d342e3737322d312e3134342d392e3438382d322e3439322d31342e3330382d332e3435326c2e3431362d312e3534347a6d33392e37393220382e3338382032382e3432342d372e3631366d2d32382e36333220362e38343463342e3130342d332e36323820382e372d352e3433322031332e3431322d362e37383820342e3736342d312e31373220392e3634342d312e3930342031352e3031322d2e3832386c2e34313620312e353434632d342e38322e3936342d392e35333620322e3331322d31342e33303820332e3435322d342e37303420312e3339362d392e343620322e3538382d31342e31313620342e3136346c2d2e3431362d312e3534347a4d3230352e3132342031373720323030203139352e3732203139342e383736203137377a6d2d31312e352d38682d31392e3734386c2d382e3237362d382e38342031312e3420342e3231362031342d342e36323468397a6d31322e37353220306831392e3734386c382e3237362d382e38342d31312e3420342e3231362d31342d342e363234682d397a222066696c6c3d22233030303030222f3e3c7465787420793d223337302220666f6e742d73697a653d223137222066696c6c3d227265642220666f6e742d66616d696c793d22506c7573204a616b617274612053616e732c44656a6156752053616e732c4e6f746f20436f6c6f7220456d6f6a692c4170706c6520436f6c6f7220456d6f6a692c73616e732d73657269662220666f6e742d7765696768743d22626f6c64223e",
  "linkReferences": {},
  "deployedLinkReferences": {}
}