{
  "_format": "hh-sol-artifact-1",
  "contractName": "Domains",
  "sourceName": "contracts/Domains.sol",
  "abi": [
    {
      "inputs": [
        {
          "internalType": "string",
          "name": "_tld",
          "type": "string"
        }
      ],
      "stateMutability": "payable",
      "type": "constructor"
    },
    {
      "inputs": [],
      "name": "AlreadyRegistered",
      "type": "error"
    },
    {
      "inputs": [
        {
          "internalType": "string",
          "name": "name",
          "type": "string"
        }
      ],
      "name": "InvalidName",
      "type": "error"
    },
    {
      "inputs": [],
      "name": "Unauthorized",
      "type": "error"
    },
    {
      "inputs": [
        {
          "internalType": "string",
          "name": "name",
          "type": "string"
        }
      ],
      "name": "Unregistered",
      "type": "error"
    },
    {
      "anonymous": false,
      "inputs": [
        {
          "indexed": true,
          "internalType": "address",
          "name": "owner",
          "type": "address"
        },
        {
          "indexed": true,
          "internalType": "address",
          "name": "approved",
          "type": "address"
        },
        {
          "indexed": true,
          "internalType": "uint256",
          "name": "tokenId",
          "type": "uint256"
        }
      ],
      "name": "Approval",
      "type": "event"
    },
    {
      "anonymous": false,
      "inputs": [
        {
          "indexed": true,
          "internalType": "address",
          "name": "owner",
          "type": "address"
        },
        {
          "indexed": true,
          "internalType": "address",
          "name": "operator",
          "type": "address"
        },
        {
          "indexed": false,
          "internalType": "bool",
          "name": "approved",
          "type": "bool"
        }
      ],
      "name": "ApprovalForAll",
      "type": "event"
    },
    {
      "anonymous": false,
      "inputs": [
        {
          "indexed": true,
          "internalType": "address",
          "name": "previousOwner",
          "type": "address"
        },
        {
          "indexed": true,
          "internalType": "address",
          "name": "newOwner",
          "type": "address"
        }
      ],
      "name": "OwnershipTransferred",
      "type": "event"
    },
    {
      "anonymous": false,
      "inputs": [
        {
          "indexed": true,
          "internalType": "address",
          "name": "from",
          "type": "address"
        },
        {
          "indexed": true,
          "internalType": "address",
          "name": "to",
          "type": "address"
        },
        {
          "indexed": true,
          "internalType": "uint256",
          "name": "tokenId",
          "type": "uint256"
        }
      ],
      "name": "Transfer",
      "type": "event"
    },
    {
      "inputs": [
        {
          "internalType": "address",
          "name": "to",
          "type": "address"
        },
        {
          "internalType": "uint256",
          "name": "tokenId",
          "type": "uint256"
        }
      ],
      "name": "approve",
      "outputs": [],
      "stateMutability": "nonpayable",
      "type": "function"
    },
    {
      "inputs": [
        {
          "internalType": "address",
          "name": "owner",
          "type": "address"
        }
      ],
      "name": "balanceOf",
      "outputs": [
        {
          "internalType": "uint256",
          "name": "",
          "type": "uint256"
        }
      ],
      "stateMutability": "view",
      "type": "function"
    },
    {
      "inputs": [
        {
          "internalType": "string",
          "name": "_domainName",
          "type": "string"
        }
      ],
      "name": "getAddress",
      "outputs": [
        {
          "internalType": "address",
          "name": "",
          "type": "address"
        }
      ],
      "stateMutability": "view",
      "type": "function"
    },
    {
      "inputs": [],
      "name": "getAllDomain",
      "outputs": [
        {
          "internalType": "string[]",
          "name": "",
          "type": "string[]"
        }
      ],
      "stateMutability": "view",
      "type": "function"
    },
    {
      "inputs": [
        {
          "internalType": "uint256",
          "name": "tokenId",
          "type": "uint256"
        }
      ],
      "name": "getApproved",
      "outputs": [
        {
          "internalType": "address",
          "name": "",
          "type": "address"
        }
      ],
      "stateMutability": "view",
      "type": "function"
    },
    {
      "inputs": [
        {
          "internalType": "string",
          "name": "_domainName",
          "type": "string"
        }
      ],
      "name": "getRecords",
      "outputs": [
        {
          "internalType": "string",
          "name": "",
          "type": "string"
        }
      ],
      "stateMutability": "view",
      "type": "function"
    },
    {
      "inputs": [
        {
          "internalType": "address",
          "name": "owner",
          "type": "address"
        },
        {
          "internalType": "address",
          "name": "operator",
          "type": "address"
        }
      ],
      "name": "isApprovedForAll",
      "outputs": [
        {
          "internalType": "bool",
          "name": "",
          "type": "bool"
        }
      ],
      "stateMutability": "view",
      "type": "function"
    },
    {
      "inputs": [
        {
          "internalType": "string",
          "name": "_domainName",
          "type": "string"
        }
      ],
      "name": "isValid",
      "outputs": [
        {
          "internalType": "bool",
          "name": "",
          "type": "bool"
        }
      ],
      "stateMutability": "pure",
      "type": "function"
    },
    {
      "inputs": [],
      "name": "name",
      "outputs": [
        {
          "internalType": "string",
          "name": "",
          "type": "string"
        }
      ],
      "stateMutability": "view",
      "type": "function"
    },
    {
      "inputs": [],
      "name": "owner",
      "outputs": [
        {
          "internalType": "address",
          "name": "",
          "type": "address"
        }
      ],
      "stateMutability": "view",
      "type": "function"
    },
    {
      "inputs": [
        {
          "internalType": "uint256",
          "name": "tokenId",
          "type": "uint256"
        }
      ],
      "name": "ownerOf",
      "outputs": [
        {
          "internalType": "address",
          "name": "",
          "type": "address"
        }
      ],
      "stateMutability": "view",
      "type": "function"
    },
    {
      "inputs": [
        {
          "internalType": "string",
          "name": "name",
          "type": "string"
        }
      ],
      "name": "price",
      "outputs": [
        {
          "internalType": "uint256",
          "name": "",
          "type": "uint256"
        }
      ],
      "stateMutability": "pure",
      "type": "function"
    },
    {
      "inputs": [
        {
          "internalType": "string",
          "name": "_domainName",
          "type": "string"
        }
      ],
      "name": "register",
      "outputs": [],
      "stateMutability": "payable",
      "type": "function"
    },
    {
      "inputs": [],
      "name": "renounceOwnership",
      "outputs": [],
      "stateMutability": "nonpayable",
      "type": "function"
    },
    {
      "inputs": [
        {
          "internalType": "address",
          "name": "from",
          "type": "address"
        },
        {
          "internalType": "address",
          "name": "to",
          "type": "address"
        },
        {
          "internalType": "uint256",
          "name": "tokenId",
          "type": "uint256"
        }
      ],
      "name": "safeTransferFrom",
      "outputs": [],
      "stateMutability": "nonpayable",
      "type": "function"
    },
    {
      "inputs": [
        {
          "internalType": "address",
          "name": "from",
          "type": "address"
        },
        {
          "internalType": "address",
          "name": "to",
          "type": "address"
        },
        {
          "internalType": "uint256",
          "name": "tokenId",
          "type": "uint256"
        },
        {
          "internalType": "bytes",
          "name": "_data",
          "type": "bytes"
        }
      ],
      "name": "safeTransferFrom",
      "outputs": [],
      "stateMutability": "nonpayable",
      "type": "function"
    },
    {
      "inputs": [
        {
          "internalType": "address",
          "name": "operator",
          "type": "address"
        },
        {
          "internalType": "bool",
          "name": "approved",
          "type": "bool"
        }
      ],
      "name": "setApprovalForAll",
      "outputs": [],
      "stateMutability": "nonpayable",
      "type": "function"
    },
    {
      "inputs": [
        {
          "internalType": "string",
          "name": "_domainName",
          "type": "string"
        },
        {
          "internalType": "string",
          "name": "_spotifyLink",
          "type": "string"
        }
      ],
      "name": "storeRecord",
      "outputs": [],
      "stateMutability": "nonpayable",
      "type": "function"
    },
    {
      "inputs": [
        {
          "internalType": "bytes4",
          "name": "interfaceId",
          "type": "bytes4"
        }
      ],
      "name": "supportsInterface",
      "outputs": [
        {
          "internalType": "bool",
          "name": "",
          "type": "bool"
        }
      ],
      "stateMutability": "view",
      "type": "function"
    },
    {
      "inputs": [],
      "name": "symbol",
      "outputs": [
        {
          "internalType": "string",
          "name": "",
          "type": "string"
        }
      ],
      "stateMutability": "view",
      "type": "function"
    },
    {
      "inputs": [],
      "name": "tld",
      "outputs": [
        {
          "internalType": "string",
          "name": "",
          "type": "string"
        }
      ],
      "stateMutability": "view",
      "type": "function"
    },
    {
      "inputs": [
        {
          "internalType": "uint256",
          "name": "tokenId",
          "type": "uint256"
        }
      ],
      "name": "tokenURI",
      "outputs": [
        {
          "internalType": "string",
          "name": "",
          "type": "string"
        }
      ],
      "stateMutability": "view",
      "type": "function"
    },
    {
      "inputs": [
        {
          "internalType": "address",
          "name": "from",
          "type": "address"
        },
        {
          "internalType": "address",
          "name": "to",
          "type": "address"
        },
        {
          "internalType": "uint256",
          "name": "tokenId",
          "type": "uint256"
        }
      ],
      "name": "transferFrom",
      "outputs": [],
      "stateMutability": "nonpayable",
      "type": "function"
    },
    {
      "inputs": [
        {
          "internalType": "address",
          "name": "newOwner",
          "type": "address"
        }
      ],
      "name": "transferOwnership",
      "outputs": [],
      "stateMutability": "nonpayable",
      "type": "function"
    },
    {
      "inputs": [],
      "name": "withdraw",
      "outputs": [],
      "stateMutability": "nonpayable",
      "type": "function"
    }
  ],
  "bytecode": "0x608060405260405180610f800160405280610f448152602001620053ce610f449139600d90805190602001906200003892919062000371565b506040518060400160405280600d81526020017f3c2f746578743e3c2f7376673e00000000000000000000000000000000000000815250600e90805190602001906200008692919062000371565b5060405162006312380380620063128339818101604052810190620000ac9190620005be565b6040518060400160405280601581526020017f54726170646f6f72204e616d65205365727669636500000000000000000000008152506040518060400160405280600381526020017f544e53000000000000000000000000000000000000000000000000000000000081525081600090805190602001906200013092919062000371565b5080600190805190602001906200014992919062000371565b5050506200016c62000160620001d760201b60201c565b620001df60201b60201c565b80600990805190602001906200018492919062000371565b50620001d06040518060400160405280601081526020017f446f6d61696e7320436f6e747261637400000000000000000000000000000000815250620002a560201b62001ab51760201c565b50620006f5565b600033905090565b6000600760009054906101000a900473ffffffffffffffffffffffffffffffffffffffff16905081600760006101000a81548173ffffffffffffffffffffffffffffffffffffffff021916908373ffffffffffffffffffffffffffffffffffffffff1602179055508173ffffffffffffffffffffffffffffffffffffffff168173ffffffffffffffffffffffffffffffffffffffff167f8be0079c531659141344cd1fd0a4f28419497f9722a3daafe3b4186f6b6457e060405160405180910390a35050565b6200034581604051602401620002bc91906200066c565b6040516020818303038152906040527f41304fac000000000000000000000000000000000000000000000000000000007bffffffffffffffffffffffffffffffffffffffffffffffffffffffff19166020820180517bffffffffffffffffffffffffffffffffffffffffffffffffffffffff83818316178352505050506200034860201b60201c565b50565b60008151905060006a636f6e736f6c652e6c6f679050602083016000808483855afa5050505050565b8280546200037f90620006bf565b90600052602060002090601f016020900481019282620003a35760008555620003ef565b82601f10620003be57805160ff1916838001178555620003ef565b82800160010185558215620003ef579182015b82811115620003ee578251825591602001919060010190620003d1565b5b509050620003fe919062000402565b5090565b5b808211156200041d57600081600090555060010162000403565b5090565b6000604051905090565b600080fd5b600080fd5b600080fd5b600080fd5b6000601f19601f8301169050919050565b7f4e487b7100000000000000000000000000000000000000000000000000000000600052604160045260246000fd5b6200048a826200043f565b810181811067ffffffffffffffff82111715620004ac57620004ab62000450565b5b80604052505050565b6000620004c162000421565b9050620004cf82826200047f565b919050565b600067ffffffffffffffff821115620004f257620004f162000450565b5b620004fd826200043f565b9050602081019050919050565b60005b838110156200052a5780820151818401526020810190506200050d565b838111156200053a576000848401525b50505050565b6000620005576200055184620004d4565b620004b5565b9050828152602081018484840111156200057657620005756200043a565b5b620005838482856200050a565b509392505050565b600082601f830112620005a357620005a262000435565b5b8151620005b584826020860162000540565b91505092915050565b600060208284031215620005d757620005d66200042b565b5b600082015167ffffffffffffffff811115620005f857620005f762000430565b5b62000606848285016200058b565b91505092915050565b600081519050919050565b600082825260208201905092915050565b600062000638826200060f565b6200064481856200061a565b9350620006568185602086016200050a565b62000661816200043f565b840191505092915050565b600060208201905081810360008301526200068881846200062b565b905092915050565b7f4e487b7100000000000000000000000000000000000000000000000000000000600052602260045260246000fd5b60006002820490506001821680620006d857607f821691505b60208210811415620006ef57620006ee62000690565b5b50919050565b614cc980620007056000396000f3fe6080604052600436106101665760003560e01c806386e80b71116100d1578063c87b56dd1161008a578063f1dfaefb11610064578063f1dfaefb1461054e578063f2c298be1461058b578063f2fde38b146105a7578063fe2c6198146105d057610166565b8063c87b56dd146104a9578063e385bb86146104e6578063e985e9c51461051157610166565b806386e80b71146103875780638da5cb5b146103c457806395d89b41146103ef578063a22cb4651461041a578063b88d4fde14610443578063bf40fac11461046c57610166565b80633ccfd60b116101235780633ccfd60b1461028d57806342842e0e146102a45780636352211e146102cd5780636386953f1461030a57806370a0823114610333578063715018a61461037057610166565b806301ffc9a71461016b57806306fdde03146101a8578063081812fc146101d3578063095ea7b31461021057806323b872dd146102395780632d55143214610262575b600080fd5b34801561017757600080fd5b50610192600480360381019061018d9190613041565b61060d565b60405161019f9190613089565b60405180910390f35b3480156101b457600080fd5b506101bd6106ef565b6040516101ca919061313d565b60405180910390f35b3480156101df57600080fd5b506101fa60048036038101906101f59190613195565b610781565b6040516102079190613203565b60405180910390f35b34801561021c57600080fd5b506102376004803603810190610232919061324a565b610806565b005b34801561024557600080fd5b50610260600480360381019061025b919061328a565b61091e565b005b34801561026e57600080fd5b5061027761097e565b604051610284919061313d565b60405180910390f35b34801561029957600080fd5b506102a2610a0c565b005b3480156102b057600080fd5b506102cb60048036038101906102c6919061328a565b610b3d565b005b3480156102d957600080fd5b506102f460048036038101906102ef9190613195565b610b5d565b6040516103019190613203565b60405180910390f35b34801561031657600080fd5b50610331600480360381019061032c9190613342565b610c0f565b005b34801561033f57600080fd5b5061035a600480360381019061035591906133c3565b610d51565b60405161036791906133ff565b60405180910390f35b34801561037c57600080fd5b50610385610e09565b005b34801561039357600080fd5b506103ae60048036038101906103a9919061341a565b610e91565b6040516103bb919061313d565b60405180910390f35b3480156103d057600080fd5b506103d9610f44565b6040516103e69190613203565b60405180910390f35b3480156103fb57600080fd5b50610404610f6e565b604051610411919061313d565b60405180910390f35b34801561042657600080fd5b50610441600480360381019061043c9190613493565b611000565b005b34801561044f57600080fd5b5061046a60048036038101906104659190613603565b611016565b005b34801561047857600080fd5b50610493600480360381019061048e919061341a565b611078565b6040516104a09190613203565b60405180910390f35b3480156104b557600080fd5b506104d060048036038101906104cb9190613195565b611176565b6040516104dd919061313d565b60405180910390f35b3480156104f257600080fd5b506104fb6112c8565b6040516105089190613792565b60405180910390f35b34801561051d57600080fd5b50610538600480360381019061053391906137b4565b61144c565b6040516105459190613089565b60405180910390f35b34801561055a57600080fd5b506105756004803603810190610570919061341a565b6114e0565b6040516105829190613089565b60405180910390f35b6105a560048036038101906105a0919061341a565b611594565b005b3480156105b357600080fd5b506105ce60048036038101906105c991906133c3565b611919565b005b3480156105dc57600080fd5b506105f760048036038101906105f2919061341a565b611a11565b60405161060491906133ff565b60405180910390f35b60007f80ac58cd000000000000000000000000000000000000000000000000000000007bffffffffffffffffffffffffffffffffffffffffffffffffffffffff1916827bffffffffffffffffffffffffffffffffffffffffffffffffffffffff191614806106d857507f5b5e139f000000000000000000000000000000000000000000000000000000007bffffffffffffffffffffffffffffffffffffffffffffffffffffffff1916827bffffffffffffffffffffffffffffffffffffffffffffffffffffffff1916145b806106e857506106e782611b4e565b5b9050919050565b6060600080546106fe90613823565b80601f016020809104026020016040519081016040528092919081815260200182805461072a90613823565b80156107775780601f1061074c57610100808354040283529160200191610777565b820191906000526020600020905b81548152906001019060200180831161075a57829003601f168201915b5050505050905090565b600061078c82611bb8565b6107cb576040517f08c379a00000000000000000000000000000000000000000000000000000000081526004016107c2906138c7565b60405180910390fd5b6004600083815260200190815260200160002060009054906101000a900473ffffffffffffffffffffffffffffffffffffffff169050919050565b600061081182610b5d565b90508073ffffffffffffffffffffffffffffffffffffffff168373ffffffffffffffffffffffffffffffffffffffff161415610882576040517f08c379a000000000000000000000000000000000000000000000000000000000815260040161087990613959565b60405180910390fd5b8073ffffffffffffffffffffffffffffffffffffffff166108a1611c24565b73ffffffffffffffffffffffffffffffffffffffff1614806108d057506108cf816108ca611c24565b61144c565b5b61090f576040517f08c379a0000000000000000000000000000000000000000000000000000000008152600401610906906139eb565b60405180910390fd5b6109198383611c2c565b505050565b61092f610929611c24565b82611ce5565b61096e576040517f08c379a000000000000000000000000000000000000000000000000000000000815260040161096590613a7d565b60405180910390fd5b610979838383611dc3565b505050565b6009805461098b90613823565b80601f01602080910402602001604051908101604052809291908181526020018280546109b790613823565b8015610a045780601f106109d957610100808354040283529160200191610a04565b820191906000526020600020905b8154815290600101906020018083116109e757829003601f168201915b505050505081565b610a14611c24565b73ffffffffffffffffffffffffffffffffffffffff16610a32610f44565b73ffffffffffffffffffffffffffffffffffffffff1614610a88576040517f08c379a0000000000000000000000000000000000000000000000000000000008152600401610a7f90613ae9565b60405180910390fd5b600047905060003373ffffffffffffffffffffffffffffffffffffffff1682604051610ab390613b3a565b60006040518083038185875af1925050503d8060008114610af0576040519150601f19603f3d011682016040523d82523d6000602084013e610af5565b606091505b5050905080610b39576040517f08c379a0000000000000000000000000000000000000000000000000000000008152600401610b3090613b9b565b60405180910390fd5b5050565b610b5883838360405180602001604052806000815250611016565b505050565b6000806002600084815260200190815260200160002060009054906101000a900473ffffffffffffffffffffffffffffffffffffffff169050600073ffffffffffffffffffffffffffffffffffffffff168173ffffffffffffffffffffffffffffffffffffffff161415610c06576040517f08c379a0000000000000000000000000000000000000000000000000000000008152600401610bfd90613c2d565b60405180910390fd5b80915050919050565b600b8484604051610c21929190613c7d565b908152602001604051809103902060009054906101000a900473ffffffffffffffffffffffffffffffffffffffff1673ffffffffffffffffffffffffffffffffffffffff163373ffffffffffffffffffffffffffffffffffffffff1614610cb4576040517f82b4290000000000000000000000000000000000000000000000000000000000815260040160405180910390fd5b8181600c8686604051610cc8929190613c7d565b90815260200160405180910390209190610ce3929190612eac565b50610d4b604051806060016040528060278152602001614c6d602791393386868080601f016020809104026020016040519081016040528093929190818152602001838380828437600081840152601f19601f8201169050808301925050505050505061202a565b50505050565b60008073ffffffffffffffffffffffffffffffffffffffff168273ffffffffffffffffffffffffffffffffffffffff161415610dc2576040517f08c379a0000000000000000000000000000000000000000000000000000000008152600401610db990613d08565b60405180910390fd5b600360008373ffffffffffffffffffffffffffffffffffffffff1673ffffffffffffffffffffffffffffffffffffffff168152602001908152602001600020549050919050565b610e11611c24565b73ffffffffffffffffffffffffffffffffffffffff16610e2f610f44565b73ffffffffffffffffffffffffffffffffffffffff1614610e85576040517f08c379a0000000000000000000000000000000000000000000000000000000008152600401610e7c90613ae9565b60405180910390fd5b610e8f60006120c9565b565b6060600c8383604051610ea5929190613c7d565b90815260200160405180910390208054610ebe90613823565b80601f0160208091040260200160405190810160405280929190818152602001828054610eea90613823565b8015610f375780601f10610f0c57610100808354040283529160200191610f37565b820191906000526020600020905b815481529060010190602001808311610f1a57829003601f168201915b5050505050905092915050565b6000600760009054906101000a900473ffffffffffffffffffffffffffffffffffffffff16905090565b606060018054610f7d90613823565b80601f0160208091040260200160405190810160405280929190818152602001828054610fa990613823565b8015610ff65780601f10610fcb57610100808354040283529160200191610ff6565b820191906000526020600020905b815481529060010190602001808311610fd957829003601f168201915b5050505050905090565b61101261100b611c24565b838361218f565b5050565b611027611021611c24565b83611ce5565b611066576040517f08c379a000000000000000000000000000000000000000000000000000000000815260040161105d90613a7d565b60405180910390fd5b611072848484846122fc565b50505050565b60008073ffffffffffffffffffffffffffffffffffffffff16600b84846040516110a3929190613c7d565b908152602001604051809103902060009054906101000a900473ffffffffffffffffffffffffffffffffffffffff1673ffffffffffffffffffffffffffffffffffffffff16141561112d5782826040517fdad7ab01000000000000000000000000000000000000000000000000000000008152600401611124929190613d55565b60405180910390fd5b600b838360405161113f929190613c7d565b908152602001604051809103902060009054906101000a900473ffffffffffffffffffffffffffffffffffffffff16905092915050565b606061118182611bb8565b6111c0576040517f08c379a00000000000000000000000000000000000000000000000000000000081526004016111b790613deb565b60405180910390fd5b60006006600084815260200190815260200160002080546111e090613823565b80601f016020809104026020016040519081016040528092919081815260200182805461120c90613823565b80156112595780601f1061122e57610100808354040283529160200191611259565b820191906000526020600020905b81548152906001019060200180831161123c57829003601f168201915b50505050509050600061126a612358565b90506000815114156112805781925050506112c3565b6000825111156112b557808260405160200161129d929190613e3c565b604051602081830303815290604052925050506112c3565b6112be8461236f565b925050505b919050565b60606113086040518060400160405280601881526020017f47657474696e6720616c6c20646f6d61696e206e616d65730000000000000000815250611ab5565b60006113146008612416565b67ffffffffffffffff81111561132d5761132c6134d8565b5b60405190808252806020026020018201604052801561136057816020015b606081526020019060019003908161134b5790505b50905060005b6113706008612416565b81101561144457600a6000828152602001908152602001600020805461139590613823565b80601f01602080910402602001604051908101604052809291908181526020018280546113c190613823565b801561140e5780601f106113e35761010080835404028352916020019161140e565b820191906000526020600020905b8154815290600101906020018083116113f157829003601f168201915b505050505082828151811061142657611425613e60565b5b6020026020010181905250808061143c90613ebe565b915050611366565b508091505090565b6000600560008473ffffffffffffffffffffffffffffffffffffffff1673ffffffffffffffffffffffffffffffffffffffff16815260200190815260200160002060008373ffffffffffffffffffffffffffffffffffffffff1673ffffffffffffffffffffffffffffffffffffffff16815260200190815260200160002060009054906101000a900460ff16905092915050565b6000600361153184848080601f016020809104026020016040519081016040528093929190818152602001838380828437600081840152601f19601f82011690508083019250505050505050612424565b1015801561158c5750600a61158984848080601f016020809104026020016040519081016040528093929190818152602001838380828437600081840152601f19601f82011690508083019250505050505050612424565b11155b905092915050565b600073ffffffffffffffffffffffffffffffffffffffff16600b83836040516115be929190613c7d565b908152602001604051809103902060009054906101000a900473ffffffffffffffffffffffffffffffffffffffff1673ffffffffffffffffffffffffffffffffffffffff161461160d57600080fd5b61161782826114e0565b61165a5781816040517f7f19f48d000000000000000000000000000000000000000000000000000000008152600401611651929190613d55565b60405180910390fd5b60006116668383611a11565b9050803410156116ab576040517f08c379a00000000000000000000000000000000000000000000000000000000081526004016116a290613f79565b60405180910390fd5b6000838360096040516020016116c393929190614079565b60405160208183030381529060405290506000600d82600e6040516020016116ed939291906140aa565b6040516020818303038152906040529050600061170a6008612416565b9050600061171784612424565b90506000611724826125d9565b905061178e6040518060600160405280602d8152602001614c40602d9139338a8a8080601f016020809104026020016040519081016040528093929190818152602001838380828437600081840152601f19601f820116905080830192505050505050508661273a565b60006117c6898961179e886127dc565b856040516020016117b29493929190614257565b6040516020818303038152906040526127dc565b90506000816040516020016117db9190614302565b604051602081830303815290604052905061180d604051806060016040528060398152602001614b8e60399139611ab5565b61184c6040518060400160405280600e81526020017f46696e616c20746f6b656e55524900000000000000000000000000000000000081525082612955565b61186d604051806060016040528060398152602001614bc760399139611ab5565b61187733866129f1565b6118818582612a0f565b33600b8b8b604051611894929190613c7d565b908152602001604051809103902060006101000a81548173ffffffffffffffffffffffffffffffffffffffff021916908373ffffffffffffffffffffffffffffffffffffffff1602179055508989600a60008881526020019081526020016000209190611902929190612eac565b5061190d6008612a83565b50505050505050505050565b611921611c24565b73ffffffffffffffffffffffffffffffffffffffff1661193f610f44565b73ffffffffffffffffffffffffffffffffffffffff1614611995576040517f08c379a000000000000000000000000000000000000000000000000000000000815260040161198c90613ae9565b60405180910390fd5b600073ffffffffffffffffffffffffffffffffffffffff168173ffffffffffffffffffffffffffffffffffffffff161415611a05576040517f08c379a00000000000000000000000000000000000000000000000000000000081526004016119fc90614396565b60405180910390fd5b611a0e816120c9565b50565b600080611a6184848080601f016020809104026020016040519081016040528093929190818152602001838380828437600081840152601f19601f82011690508083019250505050505050612424565b905060008111611a7057600080fd5b6003811415611a895766b1a2bc2ec50000915050611aaf565b6004811415611aa257666a94d74f430000915050611aaf565b67016345785d8a00009150505b92915050565b611b4b81604051602401611ac9919061313d565b6040516020818303038152906040527f41304fac000000000000000000000000000000000000000000000000000000007bffffffffffffffffffffffffffffffffffffffffffffffffffffffff19166020820180517bffffffffffffffffffffffffffffffffffffffffffffffffffffffff8381831617835250505050612a99565b50565b60007f01ffc9a7000000000000000000000000000000000000000000000000000000007bffffffffffffffffffffffffffffffffffffffffffffffffffffffff1916827bffffffffffffffffffffffffffffffffffffffffffffffffffffffff1916149050919050565b60008073ffffffffffffffffffffffffffffffffffffffff166002600084815260200190815260200160002060009054906101000a900473ffffffffffffffffffffffffffffffffffffffff1673ffffffffffffffffffffffffffffffffffffffff1614159050919050565b600033905090565b816004600083815260200190815260200160002060006101000a81548173ffffffffffffffffffffffffffffffffffffffff021916908373ffffffffffffffffffffffffffffffffffffffff160217905550808273ffffffffffffffffffffffffffffffffffffffff16611c9f83610b5d565b73ffffffffffffffffffffffffffffffffffffffff167f8c5be1e5ebec7d5bd14f71427d1e84f3dd0314c0f7b2291e5b200ac8c7c3b92560405160405180910390a45050565b6000611cf082611bb8565b611d2f576040517f08c379a0000000000000000000000000000000000000000000000000000000008152600401611d2690614428565b60405180910390fd5b6000611d3a83610b5d565b90508073ffffffffffffffffffffffffffffffffffffffff168473ffffffffffffffffffffffffffffffffffffffff161480611da957508373ffffffffffffffffffffffffffffffffffffffff16611d9184610781565b73ffffffffffffffffffffffffffffffffffffffff16145b80611dba5750611db9818561144c565b5b91505092915050565b8273ffffffffffffffffffffffffffffffffffffffff16611de382610b5d565b73ffffffffffffffffffffffffffffffffffffffff1614611e39576040517f08c379a0000000000000000000000000000000000000000000000000000000008152600401611e30906144ba565b60405180910390fd5b600073ffffffffffffffffffffffffffffffffffffffff168273ffffffffffffffffffffffffffffffffffffffff161415611ea9576040517f08c379a0000000000000000000000000000000000000000000000000000000008152600401611ea09061454c565b60405180910390fd5b611eb4838383612ac2565b611ebf600082611c2c565b6001600360008573ffffffffffffffffffffffffffffffffffffffff1673ffffffffffffffffffffffffffffffffffffffff1681526020019081526020016000206000828254611f0f919061456c565b925050819055506001600360008473ffffffffffffffffffffffffffffffffffffffff1673ffffffffffffffffffffffffffffffffffffffff1681526020019081526020016000206000828254611f6691906145a0565b92505081905550816002600083815260200190815260200160002060006101000a81548173ffffffffffffffffffffffffffffffffffffffff021916908373ffffffffffffffffffffffffffffffffffffffff160217905550808273ffffffffffffffffffffffffffffffffffffffff168473ffffffffffffffffffffffffffffffffffffffff167fddf252ad1be2c89b69c2b068fc378daa952ba7f163c4a11628f55a4df523b3ef60405160405180910390a4612025838383612ac7565b505050565b6120c4838383604051602401612042939291906145f6565b6040516020818303038152906040527fe0e9ad4f000000000000000000000000000000000000000000000000000000007bffffffffffffffffffffffffffffffffffffffffffffffffffffffff19166020820180517bffffffffffffffffffffffffffffffffffffffffffffffffffffffff8381831617835250505050612a99565b505050565b6000600760009054906101000a900473ffffffffffffffffffffffffffffffffffffffff16905081600760006101000a81548173ffffffffffffffffffffffffffffffffffffffff021916908373ffffffffffffffffffffffffffffffffffffffff1602179055508173ffffffffffffffffffffffffffffffffffffffff168173ffffffffffffffffffffffffffffffffffffffff167f8be0079c531659141344cd1fd0a4f28419497f9722a3daafe3b4186f6b6457e060405160405180910390a35050565b8173ffffffffffffffffffffffffffffffffffffffff168373ffffffffffffffffffffffffffffffffffffffff1614156121fe576040517f08c379a00000000000000000000000000000000000000000000000000000000081526004016121f590614687565b60405180910390fd5b80600560008573ffffffffffffffffffffffffffffffffffffffff1673ffffffffffffffffffffffffffffffffffffffff16815260200190815260200160002060008473ffffffffffffffffffffffffffffffffffffffff1673ffffffffffffffffffffffffffffffffffffffff16815260200190815260200160002060006101000a81548160ff0219169083151502179055508173ffffffffffffffffffffffffffffffffffffffff168373ffffffffffffffffffffffffffffffffffffffff167f17307eab39ab6107e8899845ad3d59bd9653f200f220920489ca2b5937696c31836040516122ef9190613089565b60405180910390a3505050565b612307848484611dc3565b61231384848484612acc565b612352576040517f08c379a000000000000000000000000000000000000000000000000000000000815260040161234990614719565b60405180910390fd5b50505050565b606060405180602001604052806000815250905090565b606061237a82611bb8565b6123b9576040517f08c379a00000000000000000000000000000000000000000000000000000000081526004016123b0906147ab565b60405180910390fd5b60006123c3612358565b905060008151116123e3576040518060200160405280600081525061240e565b806123ed846125d9565b6040516020016123fe929190613e3c565b6040516020818303038152906040525b915050919050565b600081600001549050919050565b60008060008084519050600092505b808210156125ce5760008583815181106124505761244f613e60565b5b602001015160f81c60f81b9050608060f81b817effffffffffffffffffffffffffffffffffffffffffffffffffffffffffffff1916101561249f5760018361249891906145a0565b92506125ba565b60e060f81b817effffffffffffffffffffffffffffffffffffffffffffffffffffffffffffff191610156124e1576002836124da91906145a0565b92506125b9565b60f060f81b817effffffffffffffffffffffffffffffffffffffffffffffffffffffffffffff191610156125235760038361251c91906145a0565b92506125b8565b60f8801b817effffffffffffffffffffffffffffffffffffffffffffffffffffffffffffff191610156125645760048361255d91906145a0565b92506125b7565b60fc60f81b817effffffffffffffffffffffffffffffffffffffffffffffffffffffffffffff191610156125a65760058361259f91906145a0565b92506125b6565b6006836125b391906145a0565b92505b5b5b5b5b5082806125c690613ebe565b935050612433565b829350505050919050565b60606000821415612621576040518060400160405280600181526020017f30000000000000000000000000000000000000000000000000000000000000008152509050612735565b600082905060005b6000821461265357808061263c90613ebe565b915050600a8261264c91906147fa565b9150612629565b60008167ffffffffffffffff81111561266f5761266e6134d8565b5b6040519080825280601f01601f1916602001820160405280156126a15781602001600182028036833780820191505090505b5090505b6000851461272e576001826126ba919061456c565b9150600a856126c9919061482b565b60306126d591906145a0565b60f81b8183815181106126eb576126ea613e60565b5b60200101907effffffffffffffffffffffffffffffffffffffffffffffffffffffffffffff1916908160001a905350600a8561272791906147fa565b94506126a5565b8093505050505b919050565b6127d684848484604051602401612754949392919061485c565b6040516020818303038152906040527f8f624be9000000000000000000000000000000000000000000000000000000007bffffffffffffffffffffffffffffffffffffffffffffffffffffffff19166020820180517bffffffffffffffffffffffffffffffffffffffffffffffffffffffff8381831617835250505050612a99565b50505050565b60606000825114156127ff57604051806020016040528060008152509050612950565b6000604051806060016040528060408152602001614c00604091399050600060036002855161282e91906145a0565b61283891906147fa565b600461284491906148af565b9050600060208261285591906145a0565b67ffffffffffffffff81111561286e5761286d6134d8565b5b6040519080825280601f01601f1916602001820160405280156128a05781602001600182028036833780820191505090505b509050818152600183018586518101602084015b8183101561290f576003830192508251603f8160121c168501518253600182019150603f81600c1c168501518253600182019150603f8160061c168501518253600182019150603f81168501518253600182019150506128b4565b600389510660018114612929576002811461293957612944565b613d3d60f01b6002830352612944565b603d60f81b60018303525b50505050508093505050505b919050565b6129ed828260405160240161296b929190614909565b6040516020818303038152906040527f4b5c4277000000000000000000000000000000000000000000000000000000007bffffffffffffffffffffffffffffffffffffffffffffffffffffffff19166020820180517bffffffffffffffffffffffffffffffffffffffffffffffffffffffff8381831617835250505050612a99565b5050565b612a0b828260405180602001604052806000815250612c54565b5050565b612a1882611bb8565b612a57576040517f08c379a0000000000000000000000000000000000000000000000000000000008152600401612a4e906149b2565b60405180910390fd5b80600660008481526020019081526020016000209080519060200190612a7e929190612f32565b505050565b6001816000016000828254019250508190555050565b60008151905060006a636f6e736f6c652e6c6f679050602083016000808483855afa5050505050565b505050565b505050565b6000612aed8473ffffffffffffffffffffffffffffffffffffffff16612caf565b15612c47578373ffffffffffffffffffffffffffffffffffffffff1663150b7a02612b16611c24565b8786866040518563ffffffff1660e01b8152600401612b389493929190614a27565b6020604051808303816000875af1925050508015612b7457506040513d601f19601f82011682018060405250810190612b719190614a88565b60015b612bf7573d8060008114612ba4576040519150601f19603f3d011682016040523d82523d6000602084013e612ba9565b606091505b50600081511415612bef576040517f08c379a0000000000000000000000000000000000000000000000000000000008152600401612be690614719565b60405180910390fd5b805181602001fd5b63150b7a0260e01b7bffffffffffffffffffffffffffffffffffffffffffffffffffffffff1916817bffffffffffffffffffffffffffffffffffffffffffffffffffffffff191614915050612c4c565b600190505b949350505050565b612c5e8383612cd2565b612c6b6000848484612acc565b612caa576040517f08c379a0000000000000000000000000000000000000000000000000000000008152600401612ca190614719565b60405180910390fd5b505050565b6000808273ffffffffffffffffffffffffffffffffffffffff163b119050919050565b600073ffffffffffffffffffffffffffffffffffffffff168273ffffffffffffffffffffffffffffffffffffffff161415612d42576040517f08c379a0000000000000000000000000000000000000000000000000000000008152600401612d3990614b01565b60405180910390fd5b612d4b81611bb8565b15612d8b576040517f08c379a0000000000000000000000000000000000000000000000000000000008152600401612d8290614b6d565b60405180910390fd5b612d9760008383612ac2565b6001600360008473ffffffffffffffffffffffffffffffffffffffff1673ffffffffffffffffffffffffffffffffffffffff1681526020019081526020016000206000828254612de791906145a0565b92505081905550816002600083815260200190815260200160002060006101000a81548173ffffffffffffffffffffffffffffffffffffffff021916908373ffffffffffffffffffffffffffffffffffffffff160217905550808273ffffffffffffffffffffffffffffffffffffffff16600073ffffffffffffffffffffffffffffffffffffffff167fddf252ad1be2c89b69c2b068fc378daa952ba7f163c4a11628f55a4df523b3ef60405160405180910390a4612ea860008383612ac7565b5050565b828054612eb890613823565b90600052602060002090601f016020900481019282612eda5760008555612f21565b82601f10612ef357803560ff1916838001178555612f21565b82800160010185558215612f21579182015b82811115612f20578235825591602001919060010190612f05565b5b509050612f2e9190612fb8565b5090565b828054612f3e90613823565b90600052602060002090601f016020900481019282612f605760008555612fa7565b82601f10612f7957805160ff1916838001178555612fa7565b82800160010185558215612fa7579182015b82811115612fa6578251825591602001919060010190612f8b565b5b509050612fb49190612fb8565b5090565b5b80821115612fd1576000816000905550600101612fb9565b5090565b6000604051905090565b600080fd5b600080fd5b60007fffffffff0000000000000000000000000000000000000000000000000000000082169050919050565b61301e81612fe9565b811461302957600080fd5b50565b60008135905061303b81613015565b92915050565b60006020828403121561305757613056612fdf565b5b60006130658482850161302c565b91505092915050565b60008115159050919050565b6130838161306e565b82525050565b600060208201905061309e600083018461307a565b92915050565b600081519050919050565b600082825260208201905092915050565b60005b838110156130de5780820151818401526020810190506130c3565b838111156130ed576000848401525b50505050565b6000601f19601f8301169050919050565b600061310f826130a4565b61311981856130af565b93506131298185602086016130c0565b613132816130f3565b840191505092915050565b600060208201905081810360008301526131578184613104565b905092915050565b6000819050919050565b6131728161315f565b811461317d57600080fd5b50565b60008135905061318f81613169565b92915050565b6000602082840312156131ab576131aa612fdf565b5b60006131b984828501613180565b91505092915050565b600073ffffffffffffffffffffffffffffffffffffffff82169050919050565b60006131ed826131c2565b9050919050565b6131fd816131e2565b82525050565b600060208201905061321860008301846131f4565b92915050565b613227816131e2565b811461323257600080fd5b50565b6000813590506132448161321e565b92915050565b6000806040838503121561326157613260612fdf565b5b600061326f85828601613235565b925050602061328085828601613180565b9150509250929050565b6000806000606084860312156132a3576132a2612fdf565b5b60006132b186828701613235565b93505060206132c286828701613235565b92505060406132d386828701613180565b9150509250925092565b600080fd5b600080fd5b600080fd5b60008083601f840112613302576133016132dd565b5b8235905067ffffffffffffffff81111561331f5761331e6132e2565b5b60208301915083600182028301111561333b5761333a6132e7565b5b9250929050565b6000806000806040858703121561335c5761335b612fdf565b5b600085013567ffffffffffffffff81111561337a57613379612fe4565b5b613386878288016132ec565b9450945050602085013567ffffffffffffffff8111156133a9576133a8612fe4565b5b6133b5878288016132ec565b925092505092959194509250565b6000602082840312156133d9576133d8612fdf565b5b60006133e784828501613235565b91505092915050565b6133f98161315f565b82525050565b600060208201905061341460008301846133f0565b92915050565b6000806020838503121561343157613430612fdf565b5b600083013567ffffffffffffffff81111561344f5761344e612fe4565b5b61345b858286016132ec565b92509250509250929050565b6134708161306e565b811461347b57600080fd5b50565b60008135905061348d81613467565b92915050565b600080604083850312156134aa576134a9612fdf565b5b60006134b885828601613235565b92505060206134c98582860161347e565b9150509250929050565b600080fd5b7f4e487b7100000000000000000000000000000000000000000000000000000000600052604160045260246000fd5b613510826130f3565b810181811067ffffffffffffffff8211171561352f5761352e6134d8565b5b80604052505050565b6000613542612fd5565b905061354e8282613507565b919050565b600067ffffffffffffffff82111561356e5761356d6134d8565b5b613577826130f3565b9050602081019050919050565b82818337600083830152505050565b60006135a66135a184613553565b613538565b9050828152602081018484840111156135c2576135c16134d3565b5b6135cd848285613584565b509392505050565b600082601f8301126135ea576135e96132dd565b5b81356135fa848260208601613593565b91505092915050565b6000806000806080858703121561361d5761361c612fdf565b5b600061362b87828801613235565b945050602061363c87828801613235565b935050604061364d87828801613180565b925050606085013567ffffffffffffffff81111561366e5761366d612fe4565b5b61367a878288016135d5565b91505092959194509250565b600081519050919050565b600082825260208201905092915050565b6000819050602082019050919050565b600082825260208201905092915050565b60006136ce826130a4565b6136d881856136b2565b93506136e88185602086016130c0565b6136f1816130f3565b840191505092915050565b600061370883836136c3565b905092915050565b6000602082019050919050565b600061372882613686565b6137328185613691565b935083602082028501613744856136a2565b8060005b85811015613780578484038952815161376185826136fc565b945061376c83613710565b925060208a01995050600181019050613748565b50829750879550505050505092915050565b600060208201905081810360008301526137ac818461371d565b905092915050565b600080604083850312156137cb576137ca612fdf565b5b60006137d985828601613235565b92505060206137ea85828601613235565b9150509250929050565b7f4e487b7100000000000000000000000000000000000000000000000000000000600052602260045260246000fd5b6000600282049050600182168061383b57607f821691505b6020821081141561384f5761384e6137f4565b5b50919050565b7f4552433732313a20617070726f76656420717565727920666f72206e6f6e657860008201527f697374656e7420746f6b656e0000000000000000000000000000000000000000602082015250565b60006138b1602c836130af565b91506138bc82613855565b604082019050919050565b600060208201905081810360008301526138e0816138a4565b9050919050565b7f4552433732313a20617070726f76616c20746f2063757272656e74206f776e6560008201527f7200000000000000000000000000000000000000000000000000000000000000602082015250565b60006139436021836130af565b915061394e826138e7565b604082019050919050565b6000602082019050818103600083015261397281613936565b9050919050565b7f4552433732313a20617070726f76652063616c6c6572206973206e6f74206f7760008201527f6e6572206e6f7220617070726f76656420666f7220616c6c0000000000000000602082015250565b60006139d56038836130af565b91506139e082613979565b604082019050919050565b60006020820190508181036000830152613a04816139c8565b9050919050565b7f4552433732313a207472616e736665722063616c6c6572206973206e6f74206f60008201527f776e6572206e6f7220617070726f766564000000000000000000000000000000602082015250565b6000613a676031836130af565b9150613a7282613a0b565b604082019050919050565b60006020820190508181036000830152613a9681613a5a565b9050919050565b7f4f776e61626c653a2063616c6c6572206973206e6f7420746865206f776e6572600082015250565b6000613ad36020836130af565b9150613ade82613a9d565b602082019050919050565b60006020820190508181036000830152613b0281613ac6565b9050919050565b600081905092915050565b50565b6000613b24600083613b09565b9150613b2f82613b14565b600082019050919050565b6000613b4582613b17565b9150819050919050565b7f4661696c656420746f207769746864726177204d617469630000000000000000600082015250565b6000613b856018836130af565b9150613b9082613b4f565b602082019050919050565b60006020820190508181036000830152613bb481613b78565b9050919050565b7f4552433732313a206f776e657220717565727920666f72206e6f6e657869737460008201527f656e7420746f6b656e0000000000000000000000000000000000000000000000602082015250565b6000613c176029836130af565b9150613c2282613bbb565b604082019050919050565b60006020820190508181036000830152613c4681613c0a565b9050919050565b600081905092915050565b6000613c648385613c4d565b9350613c71838584613584565b82840190509392505050565b6000613c8a828486613c58565b91508190509392505050565b7f4552433732313a2062616c616e636520717565727920666f7220746865207a6560008201527f726f206164647265737300000000000000000000000000000000000000000000602082015250565b6000613cf2602a836130af565b9150613cfd82613c96565b604082019050919050565b60006020820190508181036000830152613d2181613ce5565b9050919050565b6000613d3483856130af565b9350613d41838584613584565b613d4a836130f3565b840190509392505050565b60006020820190508181036000830152613d70818486613d28565b90509392505050565b7f45524337323155524953746f726167653a2055524920717565727920666f722060008201527f6e6f6e6578697374656e7420746f6b656e000000000000000000000000000000602082015250565b6000613dd56031836130af565b9150613de082613d79565b604082019050919050565b60006020820190508181036000830152613e0481613dc8565b9050919050565b6000613e16826130a4565b613e208185613c4d565b9350613e308185602086016130c0565b80840191505092915050565b6000613e488285613e0b565b9150613e548284613e0b565b91508190509392505050565b7f4e487b7100000000000000000000000000000000000000000000000000000000600052603260045260246000fd5b7f4e487b7100000000000000000000000000000000000000000000000000000000600052601160045260246000fd5b6000613ec98261315f565b91507fffffffffffffffffffffffffffffffffffffffffffffffffffffffffffffffff821415613efc57613efb613e8f565b5b600182019050919050565b7f506c6561736520706179206d6f7265204d4154494320746f207265676973746560008201527f72206120646f6d61696e00000000000000000000000000000000000000000000602082015250565b6000613f63602a836130af565b9150613f6e82613f07565b604082019050919050565b60006020820190508181036000830152613f9281613f56565b9050919050565b7f2e00000000000000000000000000000000000000000000000000000000000000600082015250565b6000613fcf600183613c4d565b9150613fda82613f99565b600182019050919050565b60008190508160005260206000209050919050565b6000815461400781613823565b6140118186613c4d565b9450600182166000811461402c576001811461403d57614070565b60ff19831686528186019350614070565b61404685613fe5565b60005b8381101561406857815481890152600182019150602081019050614049565b838801955050505b50505092915050565b6000614086828587613c58565b915061409182613fc2565b915061409d8284613ffa565b9150819050949350505050565b60006140b68286613ffa565b91506140c28285613e0b565b91506140ce8284613ffa565b9150819050949350505050565b7f7b226e616d65223a202200000000000000000000000000000000000000000000600082015250565b6000614111600a83613c4d565b915061411c826140db565b600a82019050919050565b7f222c20226465736372697074696f6e223a20224120646f6d61696e206f6e207460008201527f68652054726170646f6f72204e616d652053657276696365222c2022696d616760208201527f65223a2022646174613a696d6167652f7376672b786d6c3b6261736536342c00604082015250565b60006141a9605f83613c4d565b91506141b482614127565b605f82019050919050565b7f222c226c656e677468223a220000000000000000000000000000000000000000600082015250565b60006141f5600c83613c4d565b9150614200826141bf565b600c82019050919050565b7f227d000000000000000000000000000000000000000000000000000000000000600082015250565b6000614241600283613c4d565b915061424c8261420b565b600282019050919050565b600061426282614104565b915061426f828688613c58565b915061427a8261419c565b91506142868285613e0b565b9150614291826141e8565b915061429d8284613e0b565b91506142a882614234565b915081905095945050505050565b7f646174613a6170706c69636174696f6e2f6a736f6e3b6261736536342c000000600082015250565b60006142ec601d83613c4d565b91506142f7826142b6565b601d82019050919050565b600061430d826142df565b91506143198284613e0b565b915081905092915050565b7f4f776e61626c653a206e6577206f776e657220697320746865207a65726f206160008201527f6464726573730000000000000000000000000000000000000000000000000000602082015250565b60006143806026836130af565b915061438b82614324565b604082019050919050565b600060208201905081810360008301526143af81614373565b9050919050565b7f4552433732313a206f70657261746f7220717565727920666f72206e6f6e657860008201527f697374656e7420746f6b656e0000000000000000000000000000000000000000602082015250565b6000614412602c836130af565b915061441d826143b6565b604082019050919050565b6000602082019050818103600083015261444181614405565b9050919050565b7f4552433732313a207472616e736665722066726f6d20696e636f72726563742060008201527f6f776e6572000000000000000000000000000000000000000000000000000000602082015250565b60006144a46025836130af565b91506144af82614448565b604082019050919050565b600060208201905081810360008301526144d381614497565b9050919050565b7f4552433732313a207472616e7366657220746f20746865207a65726f2061646460008201527f7265737300000000000000000000000000000000000000000000000000000000602082015250565b60006145366024836130af565b9150614541826144da565b604082019050919050565b6000602082019050818103600083015261456581614529565b9050919050565b60006145778261315f565b91506145828361315f565b92508282101561459557614594613e8f565b5b828203905092915050565b60006145ab8261315f565b91506145b68361315f565b9250827fffffffffffffffffffffffffffffffffffffffffffffffffffffffffffffffff038211156145eb576145ea613e8f565b5b828201905092915050565b600060608201905081810360008301526146108186613104565b905061461f60208301856131f4565b81810360408301526146318184613104565b9050949350505050565b7f4552433732313a20617070726f766520746f2063616c6c657200000000000000600082015250565b60006146716019836130af565b915061467c8261463b565b602082019050919050565b600060208201905081810360008301526146a081614664565b9050919050565b7f4552433732313a207472616e7366657220746f206e6f6e20455243373231526560008201527f63656976657220696d706c656d656e7465720000000000000000000000000000602082015250565b60006147036032836130af565b915061470e826146a7565b604082019050919050565b60006020820190508181036000830152614732816146f6565b9050919050565b7f4552433732314d657461646174613a2055524920717565727920666f72206e6f60008201527f6e6578697374656e7420746f6b656e0000000000000000000000000000000000602082015250565b6000614795602f836130af565b91506147a082614739565b604082019050919050565b600060208201905081810360008301526147c481614788565b9050919050565b7f4e487b7100000000000000000000000000000000000000000000000000000000600052601260045260246000fd5b60006148058261315f565b91506148108361315f565b9250826148205761481f6147cb565b5b828204905092915050565b60006148368261315f565b91506148418361315f565b925082614851576148506147cb565b5b828206905092915050565b600060808201905081810360008301526148768187613104565b905061488560208301866131f4565b81810360408301526148978185613104565b90506148a660608301846133f0565b95945050505050565b60006148ba8261315f565b91506148c58361315f565b9250817fffffffffffffffffffffffffffffffffffffffffffffffffffffffffffffffff04831182151516156148fe576148fd613e8f565b5b828202905092915050565b600060408201905081810360008301526149238185613104565b905081810360208301526149378184613104565b90509392505050565b7f45524337323155524953746f726167653a2055524920736574206f66206e6f6e60008201527f6578697374656e7420746f6b656e000000000000000000000000000000000000602082015250565b600061499c602e836130af565b91506149a782614940565b604082019050919050565b600060208201905081810360008301526149cb8161498f565b9050919050565b600081519050919050565b600082825260208201905092915050565b60006149f9826149d2565b614a0381856149dd565b9350614a138185602086016130c0565b614a1c816130f3565b840191505092915050565b6000608082019050614a3c60008301876131f4565b614a4960208301866131f4565b614a5660408301856133f0565b8181036060830152614a6881846149ee565b905095945050505050565b600081519050614a8281613015565b92915050565b600060208284031215614a9e57614a9d612fdf565b5b6000614aac84828501614a73565b91505092915050565b7f4552433732313a206d696e7420746f20746865207a65726f2061646472657373600082015250565b6000614aeb6020836130af565b9150614af682614ab5565b602082019050919050565b60006020820190508181036000830152614b1a81614ade565b9050919050565b7f4552433732313a20746f6b656e20616c7265616479206d696e74656400000000600082015250565b6000614b57601c836130af565b9150614b6282614b21565b602082019050919050565b60006020820190508181036000830152614b8681614b4a565b905091905056fe0a2d2d2d2d2d2d2d2d2d2d2d2d2d2d2d2d2d2d2d2d2d2d2d2d2d2d2d2d2d2d2d2d2d2d2d2d2d2d2d2d2d2d2d2d2d2d2d2d2d2d2d2d2d2d2d2d2d2d2d2d2d2d2d2d2d2d2d2d2d2d2d2d2d2d2d2d2d2d2d2d2d2d2d2d2d2d2d2d2d2d2d2d2d2d2d2d2d2d2d2d2d2d2d2d2d2d2d2d2d2d2d2d0a4142434445464748494a4b4c4d4e4f505152535455565758595a6162636465666768696a6b6c6d6e6f707172737475767778797a303132333435363738392b2f2573206861732072656769737465726564206120646f6d61696e202573207769746820746f6b656e496420257325732068617320707574207570206120736f6e67206f6e20746865697220646f6d61696e202573a26469706673582212206ebf7c4444bf614b478b9f021f4a282456d237255928cfffb4a34561a844505c64736f6c634300080a00333c73766720786d6c6e733d22687474703a2f2f7777772e77332e6f72672f323030302f737667222076696577426f783d2230203020343030203430302220786d6c3a73706163653d227072657365727665222077696474683d2234303022206865696768743d22343030223e3c7061746820643d224d3230302037362e323936632d32392e363820302d35332e37342034332e3430342d35332e37342037372e38383820302031362e37363420352e37322033312e3935322031342e3937362034332e3136382031312e3120372e342032342e3432342031312e3732382033382e3736342031312e3732387332372e3636342d342e3332382033382e3736342d31312e37323863392e3235362d31312e3231362031342e3937362d32362e3430342031342e3937362d34332e31363820302d33342e34382d32342e30362d37372e3838382d35332e37342d37372e3838387a222066696c6c3d22233030303030222f3e3c7061746820643d224d3233362e3134203138342e343638632d392e393220372e3931322d32322e3436382031322e3636382d33362e31342031322e363638732d32362e32322d342e3735362d33362e31342d31322e3636386139312e3934322039312e3934322030203020302d342e393420322e323536632d2e3737362e3338342d312e3532382e3831322d322e32383820312e32323420312e35383420322e363420332e33303420352e31363420352e32313620372e3438342031302e39323420372e3238342032342e3033362031312e3534342033382e3134382031312e3534347332372e3232342d342e32362033382e3134382d31312e35343463312e3931322d322e33313620332e3633322d342e38343420352e3231362d372e3438342d2e37362d2e3431322d312e3530382d2e38342d322e3238382d312e3232346138382e39322038382e39322030203020302d342e3933322d322e3235367a222066696c6c3d22233030303030222f3e3c7061746820643d224d3230362e383834203130312e343732632d322e3235322d2e3533322d342e3534382d2e3833362d362e3838342d2e383336732d342e3633322e3330342d362e3838342e383336632d32352e333620352e3936342d34342e3933322032332e3732382d34342e3933322035342e3236203020332e3838342e33353220372e3636342e39362031312e33346135382e3331322035382e3331322030203020302031342e3731322031372e33393663392e393220372e3931322032322e3436382031322e3636382033362e31342031322e3636387332362e32322d342e3735362033362e31342d31322e3636386135382e322035382e322030203020302031342e3731322d31372e333936632e3630382d332e3637362e39362d372e3435362e39362d31312e33342e3030382d33302e3533322d31392e3536342d34382e3239362d34342e3932342d35342e32367a222066696c6c3d22233030303030222f3e3c706174682066696c6c3d22236631663564622220643d224d323434203134312e3533326134342036312e3338382030203020312d34342036312e3338382034342036312e3338382030203020312d34342d36312e3338382034342036312e33383820302030203120383820307a222f3e3c7061746820643d224d3230362e383834203130312e343732632d322e3235322d2e3533322d342e3534382d2e3833362d362e3838342d2e383336732d342e3633322e3330342d362e3838342e38333663322e32362d2e32363820342e3535322d2e34343420362e3838342d2e34343473342e3632342e31373620362e3838342e3434347a6d2d35302e35322038362e36322e3236382d2e3134346136332e3839322036332e3839322030203020312d332e30382d352e373336632e38353620322e303220312e37373220332e39393620322e38313220352e38387a6d38372e323732203063312e30342d312e38383420312e39362d332e383620322e3831362d352e38386136332e3334392036332e3334392030203020312d332e303820352e3733366c2e3236342e3134347a222066696c6c3d226e6f6e65222f3e3c7061746820643d224d3236342e343336203230332e333132632d382e3135362d382e30322d31302e3331362d32302e3234382d342e3930382d33302e3333326136372e31322036372e313220302030203020372e3936342d33312e38313263302d33372e3237362d33302e3231362d38342e3139362d36372e3439322d38342e313936732d36372e3439322034362e3932342d36372e3439322038342e31393663302031312e35303820322e3838342032322e33333620372e3936342033312e38313220352e3430382031302e303820332e3234382032322e3330382d342e3930382033302e333332433131392e373532203231382e383620313130203234302e30393220313130203236332e3534387635372e38363863302031312e3933362031302e30382032312e3631322032322e3531322032312e363132683133342e39386331322e34333220302032322e3531322d392e3637362032322e3531322d32312e363132762d35372e383638632d2e3030342d32332e3435362d392e37362d34342e3638382d32352e3536382d36302e3233367a6d2d31332e35382d33362e32346136362e3839322036362e3839322030203020312d342e3430342031352e3134632d2e38353620322e30322d312e37373220332e3939362d322e38313620352e38386c2d2e3236382d2e3134346136312e34342036312e34342030203020312d352e32313620372e343834632d31302e39323420372e3238342d32342e3033362031312e3534342d33382e3134382031312e353434732d32372e3232342d342e32362d33382e3134382d31312e3534346136312e3133362036312e3133362030203020312d352e3231362d372e3438346c2d2e3236382e313434632d312e30342d312e3838342d312e39362d332e38362d322e3831322d352e38386136362e36362036362e36362030203020312d342e3430342d31352e3134342036392e3336342036392e3336342030203020312d2e39362d31312e333463302d33302e3533322031392e3537322d34382e3239322034342e3933322d35342e323620322e3235322d2e35333220342e3534382d2e38333620362e3838342d2e38333673342e3633322e33303420362e3838342e3833366332352e333620352e3936342034342e3933322032332e3732382034342e3933322035342e32366137302e37322037302e37322030203020312d2e3937322031312e3334347a222066696c6c3d22233030303030222f3e3c706174682066696c6c3d226e6f6e6522207374726f6b653d2272656422207374726f6b652d77696474683d223822207374726f6b652d6c696e656361703d22726f756e6422207374726f6b652d6d697465726c696d69743d2231302220643d224d3138362e383238203232342e3937327634312e35222f3e3c706174682066696c6c3d227265642220643d224d3139342e383238203236362e343732613820382030203020312d382038203820382030203020312d382d382038203820302030203120313620307a222f3e3c706174682066696c6c3d226e6f6e6522207374726f6b653d2272656422207374726f6b652d77696474683d223822207374726f6b652d6c696e656361703d22726f756e6422207374726f6b652d6d697465726c696d69743d2231302220643d224d3231302e383238203232342e3937327637332e35222f3e3c706174682066696c6c3d227265642220643d224d3231382e383238203239382e343732613820382030203020312d382038203820382030203020312d382d382038203820302030203120313620307a222f3e3c7061746820643d224d3136352e323838203134332e3263322e3435322d312e38353220342e3930342d322e383220372e3335362d332e34373220322e3435322d2e37303820342e3930342d2e38393620372e3335362d2e39373620322e3435322e30383820342e3930342e323820372e3335362e39383820322e3435322e36353620342e39303420312e36313620372e33353620332e343676312e364c313830203134342e3538346c2d31342e3731322e323136762d312e367a6d3430203063322e3435322d312e37343820342e3930342d322e36363420372e3335362d332e32373620322e3435322d2e36363820342e3930342d2e38343820372e3335362d2e393220322e3435322e30383420342e3930342e32363420372e3335362e39333220322e3435322e36313620342e39303420312e35323820372e33353620332e32363476312e364c323230203134342e3535366c2d31342e3731322e323434762d312e367a6d2d33392e352d31392e3030382032382e34323420372e3631366d2d32382e3231362d382e33383863352e3336382d312e3038382031302e3235322d2e3335362031352e3031322e38323820342e37313220312e33363420392e33303420332e3137322031332e34313220362e3738386c2d2e34313620312e353434632d342e3635362d312e3537362d392e3431322d322e3736382d31342e3131362d342e3136342d342e3737322d312e3134342d392e3438382d322e3439322d31342e3330382d332e3435326c2e3431362d312e3534347a6d33392e37393220382e3338382032382e3432342d372e3631366d2d32382e36333220362e38343463342e3130342d332e36323820382e372d352e3433322031332e3431322d362e37383820342e3736342d312e31373220392e3634342d312e3930342031352e3031322d2e3832386c2e34313620312e353434632d342e38322e3936342d392e35333620322e3331322d31342e33303820332e3435322d342e37303420312e3339362d392e343620322e3538382d31342e31313620342e3136346c2d2e3431362d312e3534347a4d3230352e3132342031373720323030203139352e3732203139342e383736203137377a6d2d31312e352d38682d31392e3734386c2d382e3237362d382e38342031312e3420342e3231362031342d342e36323468397a6d31322e37353220306831392e3734386c382e3237362d382e38342d31312e3420342e3231362d31342d342e363234682d397a222066696c6c3d22233030303030222f3e3c7465787420793d223337302220666f6e742d73697a653d223137222066696c6c3d227265642220666f6e742d66616d696c793d22506c7573204a616b617274612053616e732c44656a6156752053616e732c4e6f746f20436f6c6f7220456d6f6a692c4170706c6520436f6c6f7220456d6f6a692c73616e732d73657269662220666f6e742d7765696768743d22626f6c64223e",
  "linkReferences": {},
  "deployedLinkReferences": {}
}